{
	"data": {
		"bytecode": {
			"linkReferences": {},
			"object": "608060405234801561001057600080fd5b50611842806100206000396000f3fe6080604052600436106100555760003560e01c8063046f0a491461005a57806305b1137b1461008557806308e93d0a146100ae5780638f4062d7146100dc5780639aba6a54146100e6578063ce88b1451461010f575b600080fd5b34801561006657600080fd5b5061006f61014d565b60405161007c91906112d2565b60405180910390f35b34801561009157600080fd5b506100ac60048036038101906100a79190610e70565b61028e565b005b3480156100ba57600080fd5b506100c36102d9565b6040516100d39493929190611271565b60405180910390f35b6100e46106ec565b005b3480156100f257600080fd5b5061010d60048036038101906101089190610eb0565b6106ee565b005b34801561011b57600080fd5b5061013660048036038101906101319190610f6b565b610c00565b604051610144929190611241565b60405180910390f35b6060600060045467ffffffffffffffff81111561016d5761016c61167d565b5b6040519080825280602002602001820160405280156101a057816020015b606081526020019060019003908161018b5790505b50905060005b6004548110156102865760006003600083815260200190815260200160002090508060010180546101d690611544565b80601f016020809104026020016040519081016040528092919081815260200182805461020290611544565b801561024f5780601f106102245761010080835404028352916020019161024f565b820191906000526020600020905b81548152906001019060200180831161023257829003601f168201915b50505050508383815181106102675761026661164e565b5b602002602001018190525050808061027e906115a7565b9150506101a6565b508091505090565b8173ffffffffffffffffffffffffffffffffffffffff166108fc829081150290604051600060405180830381858888f193505050501580156102d4573d6000803e3d6000fd5b505050565b606080606080600060045467ffffffffffffffff8111156102fd576102fc61167d565b5b60405190808252806020026020018201604052801561032b5781602001602082028036833780820191505090505b509050600060045467ffffffffffffffff81111561034c5761034b61167d565b5b60405190808252806020026020018201604052801561037f57816020015b606081526020019060019003908161036a5790505b509050600060045467ffffffffffffffff8111156103a05761039f61167d565b5b6040519080825280602002602001820160405280156103d357816020015b60608152602001906001900390816103be5790505b509050600060045467ffffffffffffffff8111156103f4576103f361167d565b5b60405190808252806020026020018201604052801561042757816020015b60608152602001906001900390816104125790505b50905060005b6004548110156106d55760006003600083815260200190815260200160002090508060000160009054906101000a900473ffffffffffffffffffffffffffffffffffffffff168683815181106104865761048561164e565b5b602002602001019073ffffffffffffffffffffffffffffffffffffffff16908173ffffffffffffffffffffffffffffffffffffffff16815250508060010180546104cf90611544565b80601f01602080910402602001604051908101604052809291908181526020018280546104fb90611544565b80156105485780601f1061051d57610100808354040283529160200191610548565b820191906000526020600020905b81548152906001019060200180831161052b57829003601f168201915b50505050508583815181106105605761055f61164e565b5b602002602001018190525080600201805461057a90611544565b80601f01602080910402602001604051908101604052809291908181526020018280546105a690611544565b80156105f35780601f106105c8576101008083540402835291602001916105f3565b820191906000526020600020905b8154815290600101906020018083116105d657829003601f168201915b505050505084838151811061060b5761060a61164e565b5b602002602001018190525080600301805461062590611544565b80601f016020809104026020016040519081016040528092919081815260200182805461065190611544565b801561069e5780601f106106735761010080835404028352916020019161069e565b820191906000526020600020905b81548152906001019060200180831161068157829003601f168201915b50505050508383815181106106b6576106b561164e565b5b60200260200101819052505080806106cd906115a7565b91505061042d565b508383838397509750975097505050505090919293565b565b6000808573ffffffffffffffffffffffffffffffffffffffff1673ffffffffffffffffffffffffffffffffffffffff16815260200190815260200160002060009054906101000a900460ff161561077a576040517f08c379a000000000000000000000000000000000000000000000000000000000815260040161077190611374565b60405180910390fd5b6000829050600c8151146107c3576040517f08c379a00000000000000000000000000000000000000000000000000000000081526004016107ba90611314565b60405180910390fd5b6000600c67ffffffffffffffff8111156107e0576107df61167d565b5b6040519080825280601f01601f1916602001820160405280156108125781602001600182028036833780820191505090505b50905060005b600c811015610894578281815181106108345761083361164e565b5b602001015160f81c60f81b8282815181106108525761085161164e565b5b60200101907effffffffffffffffffffffffffffffffffffffffffffffffffffffffffffff1916908160001a905350808061088c906115a7565b915050610818565b5060008190506001816040516108aa919061122a565b908152602001604051809103902060009054906101000a900460ff1615610906576040517f08c379a00000000000000000000000000000000000000000000000000000000081526004016108fd90611394565b60405180910390fd5b60008490506000805b825181101561097f57604060f81b8382815181106109305761092f61164e565b5b602001015160f81c60f81b7effffffffffffffffffffffffffffffffffffffffffffffffffffffffffffff1916141561096c576001915061097f565b8080610977906115a7565b91505061090f565b50806109c0576040517f08c379a00000000000000000000000000000000000000000000000000000000081526004016109b7906112f4565b60405180910390fd5b6002866040516109d0919061122a565b908152602001604051809103902060009054906101000a900460ff1615610a2c576040517f08c379a0000000000000000000000000000000000000000000000000000000008152600401610a2390611354565b60405180910390fd5b60405180608001604052808a73ffffffffffffffffffffffffffffffffffffffff1681526020018981526020018481526020018781525060036000600454815260200190815260200160002060008201518160000160006101000a81548173ffffffffffffffffffffffffffffffffffffffff021916908373ffffffffffffffffffffffffffffffffffffffff1602179055506020820151816001019080519060200190610adb929190610d1e565b506040820151816002019080519060200190610af8929190610d1e565b506060820151816003019080519060200190610b15929190610d1e565b5090505060016000808b73ffffffffffffffffffffffffffffffffffffffff1673ffffffffffffffffffffffffffffffffffffffff16815260200190815260200160002060006101000a81548160ff02191690831515021790555060018084604051610b81919061122a565b908152602001604051809103902060006101000a81548160ff0219169083151502179055506001600287604051610bb8919061122a565b908152602001604051809103902060006101000a81548160ff02191690831515021790555060046000815480929190610bf0906115a7565b9190505550505050505050505050565b600060606004548310610c48576040517f08c379a0000000000000000000000000000000000000000000000000000000008152600401610c3f90611334565b60405180910390fd5b60006003600085815260200190815260200160002090508060000160009054906101000a900473ffffffffffffffffffffffffffffffffffffffff1681600101808054610c9490611544565b80601f0160208091040260200160405190810160405280929190818152602001828054610cc090611544565b8015610d0d5780601f10610ce257610100808354040283529160200191610d0d565b820191906000526020600020905b815481529060010190602001808311610cf057829003601f168201915b505050505090509250925050915091565b828054610d2a90611544565b90600052602060002090601f016020900481019282610d4c5760008555610d93565b82601f10610d6557805160ff1916838001178555610d93565b82800160010185558215610d93579182015b82811115610d92578251825591602001919060010190610d77565b5b509050610da09190610da4565b5090565b5b80821115610dbd576000816000905550600101610da5565b5090565b6000610dd4610dcf846113d9565b6113b4565b905082815260208101848484011115610df057610def6116b1565b5b610dfb848285611502565b509392505050565b600081359050610e12816117c7565b92915050565b600081359050610e27816117de565b92915050565b600082601f830112610e4257610e416116ac565b5b8135610e52848260208601610dc1565b91505092915050565b600081359050610e6a816117f5565b92915050565b60008060408385031215610e8757610e866116bb565b5b6000610e9585828601610e18565b9250506020610ea685828601610e5b565b9150509250929050565b60008060008060808587031215610eca57610ec96116bb565b5b6000610ed887828801610e03565b945050602085013567ffffffffffffffff811115610ef957610ef86116b6565b5b610f0587828801610e2d565b935050604085013567ffffffffffffffff811115610f2657610f256116b6565b5b610f3287828801610e2d565b925050606085013567ffffffffffffffff811115610f5357610f526116b6565b5b610f5f87828801610e2d565b91505092959194509250565b600060208284031215610f8157610f806116bb565b5b6000610f8f84828501610e5b565b91505092915050565b6000610fa48383610fc4565b60208301905092915050565b6000610fbc83836110b5565b905092915050565b610fcd816114b4565b82525050565b610fdc816114b4565b82525050565b6000610fed8261142a565b610ff78185611465565b93506110028361140a565b8060005b8381101561103357815161101a8882610f98565b97506110258361144b565b925050600181019050611006565b5085935050505092915050565b600061104b82611435565b6110558185611476565b9350836020820285016110678561141a565b8060005b858110156110a357848403895281516110848582610fb0565b945061108f83611458565b925060208a0199505060018101905061106b565b50829750879550505050505092915050565b60006110c082611440565b6110ca8185611487565b93506110da818560208601611511565b6110e3816116c0565b840191505092915050565b60006110f982611440565b6111038185611498565b9350611113818560208601611511565b61111c816116c0565b840191505092915050565b600061113282611440565b61113c81856114a9565b935061114c818560208601611511565b80840191505092915050565b6000611165601583611498565b9150611170826116d1565b602082019050919050565b6000611188601d83611498565b9150611193826116fa565b602082019050919050565b60006111ab600d83611498565b91506111b682611723565b602082019050919050565b60006111ce601483611498565b91506111d98261174c565b602082019050919050565b60006111f1601e83611498565b91506111fc82611775565b602082019050919050565b6000611214601d83611498565b915061121f8261179e565b602082019050919050565b60006112368284611127565b915081905092915050565b60006040820190506112566000830185610fd3565b818103602083015261126881846110ee565b90509392505050565b6000608082019050818103600083015261128b8187610fe2565b9050818103602083015261129f8186611040565b905081810360408301526112b38185611040565b905081810360608301526112c78184611040565b905095945050505050565b600060208201905081810360008301526112ec8184611040565b905092915050565b6000602082019050818103600083015261130d81611158565b9050919050565b6000602082019050818103600083015261132d8161117b565b9050919050565b6000602082019050818103600083015261134d8161119e565b9050919050565b6000602082019050818103600083015261136d816111c1565b9050919050565b6000602082019050818103600083015261138d816111e4565b9050919050565b600060208201905081810360008301526113ad81611207565b9050919050565b60006113be6113cf565b90506113ca8282611576565b919050565b6000604051905090565b600067ffffffffffffffff8211156113f4576113f361167d565b5b6113fd826116c0565b9050602081019050919050565b6000819050602082019050919050565b6000819050602082019050919050565b600081519050919050565b600081519050919050565b600081519050919050565b6000602082019050919050565b6000602082019050919050565b600082825260208201905092915050565b600082825260208201905092915050565b600082825260208201905092915050565b600082825260208201905092915050565b600081905092915050565b60006114bf826114d8565b9050919050565b60006114d1826114d8565b9050919050565b600073ffffffffffffffffffffffffffffffffffffffff82169050919050565b6000819050919050565b82818337600083830152505050565b60005b8381101561152f578082015181840152602081019050611514565b8381111561153e576000848401525b50505050565b6000600282049050600182168061155c57607f821691505b602082108114156115705761156f61161f565b5b50919050565b61157f826116c0565b810181811067ffffffffffffffff8211171561159e5761159d61167d565b5b80604052505050565b60006115b2826114f8565b91507fffffffffffffffffffffffffffffffffffffffffffffffffffffffffffffffff8214156115e5576115e46115f0565b5b600182019050919050565b7f4e487b7100000000000000000000000000000000000000000000000000000000600052601160045260246000fd5b7f4e487b7100000000000000000000000000000000000000000000000000000000600052602260045260246000fd5b7f4e487b7100000000000000000000000000000000000000000000000000000000600052603260045260246000fd5b7f4e487b7100000000000000000000000000000000000000000000000000000000600052604160045260246000fd5b600080fd5b600080fd5b600080fd5b600080fd5b6000601f19601f8301169050919050565b7f496e76616c696420656d61696c20616464726573730000000000000000000000600082015250565b7f496e76616c69642041616468616172206e756d626572206c656e677468000000600082015250565b7f496e76616c696420696e64657800000000000000000000000000000000000000600082015250565b7f456d61696c20616c726561647920657869737473000000000000000000000000600082015250565b7f4163636f756e74206164647265737320616c7265616479206578697374730000600082015250565b7f41616468616172206e756d62657220616c726561647920657869737473000000600082015250565b6117d0816114b4565b81146117db57600080fd5b50565b6117e7816114c6565b81146117f257600080fd5b50565b6117fe816114f8565b811461180957600080fd5b5056fea26469706673582212203d2544cd281fb5b69f4181d04a124e78b81a1ef8c166e93ce4f2f5fbba8ee3d964736f6c63430008060033",
			"opcodes": "PUSH1 0x80 PUSH1 0x40 MSTORE CALLVALUE DUP1 ISZERO PUSH2 0x10 JUMPI PUSH1 0x0 DUP1 REVERT JUMPDEST POP PUSH2 0x1842 DUP1 PUSH2 0x20 PUSH1 0x0 CODECOPY PUSH1 0x0 RETURN INVALID PUSH1 0x80 PUSH1 0x40 MSTORE PUSH1 0x4 CALLDATASIZE LT PUSH2 0x55 JUMPI PUSH1 0x0 CALLDATALOAD PUSH1 0xE0 SHR DUP1 PUSH4 0x46F0A49 EQ PUSH2 0x5A JUMPI DUP1 PUSH4 0x5B1137B EQ PUSH2 0x85 JUMPI DUP1 PUSH4 0x8E93D0A EQ PUSH2 0xAE JUMPI DUP1 PUSH4 0x8F4062D7 EQ PUSH2 0xDC JUMPI DUP1 PUSH4 0x9ABA6A54 EQ PUSH2 0xE6 JUMPI DUP1 PUSH4 0xCE88B145 EQ PUSH2 0x10F JUMPI JUMPDEST PUSH1 0x0 DUP1 REVERT JUMPDEST CALLVALUE DUP1 ISZERO PUSH2 0x66 JUMPI PUSH1 0x0 DUP1 REVERT JUMPDEST POP PUSH2 0x6F PUSH2 0x14D JUMP JUMPDEST PUSH1 0x40 MLOAD PUSH2 0x7C SWAP2 SWAP1 PUSH2 0x12D2 JUMP JUMPDEST PUSH1 0x40 MLOAD DUP1 SWAP2 SUB SWAP1 RETURN JUMPDEST CALLVALUE DUP1 ISZERO PUSH2 0x91 JUMPI PUSH1 0x0 DUP1 REVERT JUMPDEST POP PUSH2 0xAC PUSH1 0x4 DUP1 CALLDATASIZE SUB DUP2 ADD SWAP1 PUSH2 0xA7 SWAP2 SWAP1 PUSH2 0xE70 JUMP JUMPDEST PUSH2 0x28E JUMP JUMPDEST STOP JUMPDEST CALLVALUE DUP1 ISZERO PUSH2 0xBA JUMPI PUSH1 0x0 DUP1 REVERT JUMPDEST POP PUSH2 0xC3 PUSH2 0x2D9 JUMP JUMPDEST PUSH1 0x40 MLOAD PUSH2 0xD3 SWAP5 SWAP4 SWAP3 SWAP2 SWAP1 PUSH2 0x1271 JUMP JUMPDEST PUSH1 0x40 MLOAD DUP1 SWAP2 SUB SWAP1 RETURN JUMPDEST PUSH2 0xE4 PUSH2 0x6EC JUMP JUMPDEST STOP JUMPDEST CALLVALUE DUP1 ISZERO PUSH2 0xF2 JUMPI PUSH1 0x0 DUP1 REVERT JUMPDEST POP PUSH2 0x10D PUSH1 0x4 DUP1 CALLDATASIZE SUB DUP2 ADD SWAP1 PUSH2 0x108 SWAP2 SWAP1 PUSH2 0xEB0 JUMP JUMPDEST PUSH2 0x6EE JUMP JUMPDEST STOP JUMPDEST CALLVALUE DUP1 ISZERO PUSH2 0x11B JUMPI PUSH1 0x0 DUP1 REVERT JUMPDEST POP PUSH2 0x136 PUSH1 0x4 DUP1 CALLDATASIZE SUB DUP2 ADD SWAP1 PUSH2 0x131 SWAP2 SWAP1 PUSH2 0xF6B JUMP JUMPDEST PUSH2 0xC00 JUMP JUMPDEST PUSH1 0x40 MLOAD PUSH2 0x144 SWAP3 SWAP2 SWAP1 PUSH2 0x1241 JUMP JUMPDEST PUSH1 0x40 MLOAD DUP1 SWAP2 SUB SWAP1 RETURN JUMPDEST PUSH1 0x60 PUSH1 0x0 PUSH1 0x4 SLOAD PUSH8 0xFFFFFFFFFFFFFFFF DUP2 GT ISZERO PUSH2 0x16D JUMPI PUSH2 0x16C PUSH2 0x167D JUMP JUMPDEST JUMPDEST PUSH1 0x40 MLOAD SWAP1 DUP1 DUP3 MSTORE DUP1 PUSH1 0x20 MUL PUSH1 0x20 ADD DUP3 ADD PUSH1 0x40 MSTORE DUP1 ISZERO PUSH2 0x1A0 JUMPI DUP2 PUSH1 0x20 ADD JUMPDEST PUSH1 0x60 DUP2 MSTORE PUSH1 0x20 ADD SWAP1 PUSH1 0x1 SWAP1 SUB SWAP1 DUP2 PUSH2 0x18B JUMPI SWAP1 POP JUMPDEST POP SWAP1 POP PUSH1 0x0 JUMPDEST PUSH1 0x4 SLOAD DUP2 LT ISZERO PUSH2 0x286 JUMPI PUSH1 0x0 PUSH1 0x3 PUSH1 0x0 DUP4 DUP2 MSTORE PUSH1 0x20 ADD SWAP1 DUP2 MSTORE PUSH1 0x20 ADD PUSH1 0x0 KECCAK256 SWAP1 POP DUP1 PUSH1 0x1 ADD DUP1 SLOAD PUSH2 0x1D6 SWAP1 PUSH2 0x1544 JUMP JUMPDEST DUP1 PUSH1 0x1F ADD PUSH1 0x20 DUP1 SWAP2 DIV MUL PUSH1 0x20 ADD PUSH1 0x40 MLOAD SWAP1 DUP2 ADD PUSH1 0x40 MSTORE DUP1 SWAP3 SWAP2 SWAP1 DUP2 DUP2 MSTORE PUSH1 0x20 ADD DUP3 DUP1 SLOAD PUSH2 0x202 SWAP1 PUSH2 0x1544 JUMP JUMPDEST DUP1 ISZERO PUSH2 0x24F JUMPI DUP1 PUSH1 0x1F LT PUSH2 0x224 JUMPI PUSH2 0x100 DUP1 DUP4 SLOAD DIV MUL DUP4 MSTORE SWAP2 PUSH1 0x20 ADD SWAP2 PUSH2 0x24F JUMP JUMPDEST DUP3 ADD SWAP2 SWAP1 PUSH1 0x0 MSTORE PUSH1 0x20 PUSH1 0x0 KECCAK256 SWAP1 JUMPDEST DUP2 SLOAD DUP2 MSTORE SWAP1 PUSH1 0x1 ADD SWAP1 PUSH1 0x20 ADD DUP1 DUP4 GT PUSH2 0x232 JUMPI DUP3 SWAP1 SUB PUSH1 0x1F AND DUP3 ADD SWAP2 JUMPDEST POP POP POP POP POP DUP4 DUP4 DUP2 MLOAD DUP2 LT PUSH2 0x267 JUMPI PUSH2 0x266 PUSH2 0x164E JUMP JUMPDEST JUMPDEST PUSH1 0x20 MUL PUSH1 0x20 ADD ADD DUP2 SWAP1 MSTORE POP POP DUP1 DUP1 PUSH2 0x27E SWAP1 PUSH2 0x15A7 JUMP JUMPDEST SWAP2 POP POP PUSH2 0x1A6 JUMP JUMPDEST POP DUP1 SWAP2 POP POP SWAP1 JUMP JUMPDEST DUP2 PUSH20 0xFFFFFFFFFFFFFFFFFFFFFFFFFFFFFFFFFFFFFFFF AND PUSH2 0x8FC DUP3 SWAP1 DUP2 ISZERO MUL SWAP1 PUSH1 0x40 MLOAD PUSH1 0x0 PUSH1 0x40 MLOAD DUP1 DUP4 SUB DUP2 DUP6 DUP9 DUP9 CALL SWAP4 POP POP POP POP ISZERO DUP1 ISZERO PUSH2 0x2D4 JUMPI RETURNDATASIZE PUSH1 0x0 DUP1 RETURNDATACOPY RETURNDATASIZE PUSH1 0x0 REVERT JUMPDEST POP POP POP JUMP JUMPDEST PUSH1 0x60 DUP1 PUSH1 0x60 DUP1 PUSH1 0x0 PUSH1 0x4 SLOAD PUSH8 0xFFFFFFFFFFFFFFFF DUP2 GT ISZERO PUSH2 0x2FD JUMPI PUSH2 0x2FC PUSH2 0x167D JUMP JUMPDEST JUMPDEST PUSH1 0x40 MLOAD SWAP1 DUP1 DUP3 MSTORE DUP1 PUSH1 0x20 MUL PUSH1 0x20 ADD DUP3 ADD PUSH1 0x40 MSTORE DUP1 ISZERO PUSH2 0x32B JUMPI DUP2 PUSH1 0x20 ADD PUSH1 0x20 DUP3 MUL DUP1 CALLDATASIZE DUP4 CALLDATACOPY DUP1 DUP3 ADD SWAP2 POP POP SWAP1 POP JUMPDEST POP SWAP1 POP PUSH1 0x0 PUSH1 0x4 SLOAD PUSH8 0xFFFFFFFFFFFFFFFF DUP2 GT ISZERO PUSH2 0x34C JUMPI PUSH2 0x34B PUSH2 0x167D JUMP JUMPDEST JUMPDEST PUSH1 0x40 MLOAD SWAP1 DUP1 DUP3 MSTORE DUP1 PUSH1 0x20 MUL PUSH1 0x20 ADD DUP3 ADD PUSH1 0x40 MSTORE DUP1 ISZERO PUSH2 0x37F JUMPI DUP2 PUSH1 0x20 ADD JUMPDEST PUSH1 0x60 DUP2 MSTORE PUSH1 0x20 ADD SWAP1 PUSH1 0x1 SWAP1 SUB SWAP1 DUP2 PUSH2 0x36A JUMPI SWAP1 POP JUMPDEST POP SWAP1 POP PUSH1 0x0 PUSH1 0x4 SLOAD PUSH8 0xFFFFFFFFFFFFFFFF DUP2 GT ISZERO PUSH2 0x3A0 JUMPI PUSH2 0x39F PUSH2 0x167D JUMP JUMPDEST JUMPDEST PUSH1 0x40 MLOAD SWAP1 DUP1 DUP3 MSTORE DUP1 PUSH1 0x20 MUL PUSH1 0x20 ADD DUP3 ADD PUSH1 0x40 MSTORE DUP1 ISZERO PUSH2 0x3D3 JUMPI DUP2 PUSH1 0x20 ADD JUMPDEST PUSH1 0x60 DUP2 MSTORE PUSH1 0x20 ADD SWAP1 PUSH1 0x1 SWAP1 SUB SWAP1 DUP2 PUSH2 0x3BE JUMPI SWAP1 POP JUMPDEST POP SWAP1 POP PUSH1 0x0 PUSH1 0x4 SLOAD PUSH8 0xFFFFFFFFFFFFFFFF DUP2 GT ISZERO PUSH2 0x3F4 JUMPI PUSH2 0x3F3 PUSH2 0x167D JUMP JUMPDEST JUMPDEST PUSH1 0x40 MLOAD SWAP1 DUP1 DUP3 MSTORE DUP1 PUSH1 0x20 MUL PUSH1 0x20 ADD DUP3 ADD PUSH1 0x40 MSTORE DUP1 ISZERO PUSH2 0x427 JUMPI DUP2 PUSH1 0x20 ADD JUMPDEST PUSH1 0x60 DUP2 MSTORE PUSH1 0x20 ADD SWAP1 PUSH1 0x1 SWAP1 SUB SWAP1 DUP2 PUSH2 0x412 JUMPI SWAP1 POP JUMPDEST POP SWAP1 POP PUSH1 0x0 JUMPDEST PUSH1 0x4 SLOAD DUP2 LT ISZERO PUSH2 0x6D5 JUMPI PUSH1 0x0 PUSH1 0x3 PUSH1 0x0 DUP4 DUP2 MSTORE PUSH1 0x20 ADD SWAP1 DUP2 MSTORE PUSH1 0x20 ADD PUSH1 0x0 KECCAK256 SWAP1 POP DUP1 PUSH1 0x0 ADD PUSH1 0x0 SWAP1 SLOAD SWAP1 PUSH2 0x100 EXP SWAP1 DIV PUSH20 0xFFFFFFFFFFFFFFFFFFFFFFFFFFFFFFFFFFFFFFFF AND DUP7 DUP4 DUP2 MLOAD DUP2 LT PUSH2 0x486 JUMPI PUSH2 0x485 PUSH2 0x164E JUMP JUMPDEST JUMPDEST PUSH1 0x20 MUL PUSH1 0x20 ADD ADD SWAP1 PUSH20 0xFFFFFFFFFFFFFFFFFFFFFFFFFFFFFFFFFFFFFFFF AND SWAP1 DUP2 PUSH20 0xFFFFFFFFFFFFFFFFFFFFFFFFFFFFFFFFFFFFFFFF AND DUP2 MSTORE POP POP DUP1 PUSH1 0x1 ADD DUP1 SLOAD PUSH2 0x4CF SWAP1 PUSH2 0x1544 JUMP JUMPDEST DUP1 PUSH1 0x1F ADD PUSH1 0x20 DUP1 SWAP2 DIV MUL PUSH1 0x20 ADD PUSH1 0x40 MLOAD SWAP1 DUP2 ADD PUSH1 0x40 MSTORE DUP1 SWAP3 SWAP2 SWAP1 DUP2 DUP2 MSTORE PUSH1 0x20 ADD DUP3 DUP1 SLOAD PUSH2 0x4FB SWAP1 PUSH2 0x1544 JUMP JUMPDEST DUP1 ISZERO PUSH2 0x548 JUMPI DUP1 PUSH1 0x1F LT PUSH2 0x51D JUMPI PUSH2 0x100 DUP1 DUP4 SLOAD DIV MUL DUP4 MSTORE SWAP2 PUSH1 0x20 ADD SWAP2 PUSH2 0x548 JUMP JUMPDEST DUP3 ADD SWAP2 SWAP1 PUSH1 0x0 MSTORE PUSH1 0x20 PUSH1 0x0 KECCAK256 SWAP1 JUMPDEST DUP2 SLOAD DUP2 MSTORE SWAP1 PUSH1 0x1 ADD SWAP1 PUSH1 0x20 ADD DUP1 DUP4 GT PUSH2 0x52B JUMPI DUP3 SWAP1 SUB PUSH1 0x1F AND DUP3 ADD SWAP2 JUMPDEST POP POP POP POP POP DUP6 DUP4 DUP2 MLOAD DUP2 LT PUSH2 0x560 JUMPI PUSH2 0x55F PUSH2 0x164E JUMP JUMPDEST JUMPDEST PUSH1 0x20 MUL PUSH1 0x20 ADD ADD DUP2 SWAP1 MSTORE POP DUP1 PUSH1 0x2 ADD DUP1 SLOAD PUSH2 0x57A SWAP1 PUSH2 0x1544 JUMP JUMPDEST DUP1 PUSH1 0x1F ADD PUSH1 0x20 DUP1 SWAP2 DIV MUL PUSH1 0x20 ADD PUSH1 0x40 MLOAD SWAP1 DUP2 ADD PUSH1 0x40 MSTORE DUP1 SWAP3 SWAP2 SWAP1 DUP2 DUP2 MSTORE PUSH1 0x20 ADD DUP3 DUP1 SLOAD PUSH2 0x5A6 SWAP1 PUSH2 0x1544 JUMP JUMPDEST DUP1 ISZERO PUSH2 0x5F3 JUMPI DUP1 PUSH1 0x1F LT PUSH2 0x5C8 JUMPI PUSH2 0x100 DUP1 DUP4 SLOAD DIV MUL DUP4 MSTORE SWAP2 PUSH1 0x20 ADD SWAP2 PUSH2 0x5F3 JUMP JUMPDEST DUP3 ADD SWAP2 SWAP1 PUSH1 0x0 MSTORE PUSH1 0x20 PUSH1 0x0 KECCAK256 SWAP1 JUMPDEST DUP2 SLOAD DUP2 MSTORE SWAP1 PUSH1 0x1 ADD SWAP1 PUSH1 0x20 ADD DUP1 DUP4 GT PUSH2 0x5D6 JUMPI DUP3 SWAP1 SUB PUSH1 0x1F AND DUP3 ADD SWAP2 JUMPDEST POP POP POP POP POP DUP5 DUP4 DUP2 MLOAD DUP2 LT PUSH2 0x60B JUMPI PUSH2 0x60A PUSH2 0x164E JUMP JUMPDEST JUMPDEST PUSH1 0x20 MUL PUSH1 0x20 ADD ADD DUP2 SWAP1 MSTORE POP DUP1 PUSH1 0x3 ADD DUP1 SLOAD PUSH2 0x625 SWAP1 PUSH2 0x1544 JUMP JUMPDEST DUP1 PUSH1 0x1F ADD PUSH1 0x20 DUP1 SWAP2 DIV MUL PUSH1 0x20 ADD PUSH1 0x40 MLOAD SWAP1 DUP2 ADD PUSH1 0x40 MSTORE DUP1 SWAP3 SWAP2 SWAP1 DUP2 DUP2 MSTORE PUSH1 0x20 ADD DUP3 DUP1 SLOAD PUSH2 0x651 SWAP1 PUSH2 0x1544 JUMP JUMPDEST DUP1 ISZERO PUSH2 0x69E JUMPI DUP1 PUSH1 0x1F LT PUSH2 0x673 JUMPI PUSH2 0x100 DUP1 DUP4 SLOAD DIV MUL DUP4 MSTORE SWAP2 PUSH1 0x20 ADD SWAP2 PUSH2 0x69E JUMP JUMPDEST DUP3 ADD SWAP2 SWAP1 PUSH1 0x0 MSTORE PUSH1 0x20 PUSH1 0x0 KECCAK256 SWAP1 JUMPDEST DUP2 SLOAD DUP2 MSTORE SWAP1 PUSH1 0x1 ADD SWAP1 PUSH1 0x20 ADD DUP1 DUP4 GT PUSH2 0x681 JUMPI DUP3 SWAP1 SUB PUSH1 0x1F AND DUP3 ADD SWAP2 JUMPDEST POP POP POP POP POP DUP4 DUP4 DUP2 MLOAD DUP2 LT PUSH2 0x6B6 JUMPI PUSH2 0x6B5 PUSH2 0x164E JUMP JUMPDEST JUMPDEST PUSH1 0x20 MUL PUSH1 0x20 ADD ADD DUP2 SWAP1 MSTORE POP POP DUP1 DUP1 PUSH2 0x6CD SWAP1 PUSH2 0x15A7 JUMP JUMPDEST SWAP2 POP POP PUSH2 0x42D JUMP JUMPDEST POP DUP4 DUP4 DUP4 DUP4 SWAP8 POP SWAP8 POP SWAP8 POP SWAP8 POP POP POP POP POP SWAP1 SWAP2 SWAP3 SWAP4 JUMP JUMPDEST JUMP JUMPDEST PUSH1 0x0 DUP1 DUP6 PUSH20 0xFFFFFFFFFFFFFFFFFFFFFFFFFFFFFFFFFFFFFFFF AND PUSH20 0xFFFFFFFFFFFFFFFFFFFFFFFFFFFFFFFFFFFFFFFF AND DUP2 MSTORE PUSH1 0x20 ADD SWAP1 DUP2 MSTORE PUSH1 0x20 ADD PUSH1 0x0 KECCAK256 PUSH1 0x0 SWAP1 SLOAD SWAP1 PUSH2 0x100 EXP SWAP1 DIV PUSH1 0xFF AND ISZERO PUSH2 0x77A JUMPI PUSH1 0x40 MLOAD PUSH32 0x8C379A000000000000000000000000000000000000000000000000000000000 DUP2 MSTORE PUSH1 0x4 ADD PUSH2 0x771 SWAP1 PUSH2 0x1374 JUMP JUMPDEST PUSH1 0x40 MLOAD DUP1 SWAP2 SUB SWAP1 REVERT JUMPDEST PUSH1 0x0 DUP3 SWAP1 POP PUSH1 0xC DUP2 MLOAD EQ PUSH2 0x7C3 JUMPI PUSH1 0x40 MLOAD PUSH32 0x8C379A000000000000000000000000000000000000000000000000000000000 DUP2 MSTORE PUSH1 0x4 ADD PUSH2 0x7BA SWAP1 PUSH2 0x1314 JUMP JUMPDEST PUSH1 0x40 MLOAD DUP1 SWAP2 SUB SWAP1 REVERT JUMPDEST PUSH1 0x0 PUSH1 0xC PUSH8 0xFFFFFFFFFFFFFFFF DUP2 GT ISZERO PUSH2 0x7E0 JUMPI PUSH2 0x7DF PUSH2 0x167D JUMP JUMPDEST JUMPDEST PUSH1 0x40 MLOAD SWAP1 DUP1 DUP3 MSTORE DUP1 PUSH1 0x1F ADD PUSH1 0x1F NOT AND PUSH1 0x20 ADD DUP3 ADD PUSH1 0x40 MSTORE DUP1 ISZERO PUSH2 0x812 JUMPI DUP2 PUSH1 0x20 ADD PUSH1 0x1 DUP3 MUL DUP1 CALLDATASIZE DUP4 CALLDATACOPY DUP1 DUP3 ADD SWAP2 POP POP SWAP1 POP JUMPDEST POP SWAP1 POP PUSH1 0x0 JUMPDEST PUSH1 0xC DUP2 LT ISZERO PUSH2 0x894 JUMPI DUP3 DUP2 DUP2 MLOAD DUP2 LT PUSH2 0x834 JUMPI PUSH2 0x833 PUSH2 0x164E JUMP JUMPDEST JUMPDEST PUSH1 0x20 ADD ADD MLOAD PUSH1 0xF8 SHR PUSH1 0xF8 SHL DUP3 DUP3 DUP2 MLOAD DUP2 LT PUSH2 0x852 JUMPI PUSH2 0x851 PUSH2 0x164E JUMP JUMPDEST JUMPDEST PUSH1 0x20 ADD ADD SWAP1 PUSH31 0xFFFFFFFFFFFFFFFFFFFFFFFFFFFFFFFFFFFFFFFFFFFFFFFFFFFFFFFFFFFFFF NOT AND SWAP1 DUP2 PUSH1 0x0 BYTE SWAP1 MSTORE8 POP DUP1 DUP1 PUSH2 0x88C SWAP1 PUSH2 0x15A7 JUMP JUMPDEST SWAP2 POP POP PUSH2 0x818 JUMP JUMPDEST POP PUSH1 0x0 DUP2 SWAP1 POP PUSH1 0x1 DUP2 PUSH1 0x40 MLOAD PUSH2 0x8AA SWAP2 SWAP1 PUSH2 0x122A JUMP JUMPDEST SWAP1 DUP2 MSTORE PUSH1 0x20 ADD PUSH1 0x40 MLOAD DUP1 SWAP2 SUB SWAP1 KECCAK256 PUSH1 0x0 SWAP1 SLOAD SWAP1 PUSH2 0x100 EXP SWAP1 DIV PUSH1 0xFF AND ISZERO PUSH2 0x906 JUMPI PUSH1 0x40 MLOAD PUSH32 0x8C379A000000000000000000000000000000000000000000000000000000000 DUP2 MSTORE PUSH1 0x4 ADD PUSH2 0x8FD SWAP1 PUSH2 0x1394 JUMP JUMPDEST PUSH1 0x40 MLOAD DUP1 SWAP2 SUB SWAP1 REVERT JUMPDEST PUSH1 0x0 DUP5 SWAP1 POP PUSH1 0x0 DUP1 JUMPDEST DUP3 MLOAD DUP2 LT ISZERO PUSH2 0x97F JUMPI PUSH1 0x40 PUSH1 0xF8 SHL DUP4 DUP3 DUP2 MLOAD DUP2 LT PUSH2 0x930 JUMPI PUSH2 0x92F PUSH2 0x164E JUMP JUMPDEST JUMPDEST PUSH1 0x20 ADD ADD MLOAD PUSH1 0xF8 SHR PUSH1 0xF8 SHL PUSH31 0xFFFFFFFFFFFFFFFFFFFFFFFFFFFFFFFFFFFFFFFFFFFFFFFFFFFFFFFFFFFFFF NOT AND EQ ISZERO PUSH2 0x96C JUMPI PUSH1 0x1 SWAP2 POP PUSH2 0x97F JUMP JUMPDEST DUP1 DUP1 PUSH2 0x977 SWAP1 PUSH2 0x15A7 JUMP JUMPDEST SWAP2 POP POP PUSH2 0x90F JUMP JUMPDEST POP DUP1 PUSH2 0x9C0 JUMPI PUSH1 0x40 MLOAD PUSH32 0x8C379A000000000000000000000000000000000000000000000000000000000 DUP2 MSTORE PUSH1 0x4 ADD PUSH2 0x9B7 SWAP1 PUSH2 0x12F4 JUMP JUMPDEST PUSH1 0x40 MLOAD DUP1 SWAP2 SUB SWAP1 REVERT JUMPDEST PUSH1 0x2 DUP7 PUSH1 0x40 MLOAD PUSH2 0x9D0 SWAP2 SWAP1 PUSH2 0x122A JUMP JUMPDEST SWAP1 DUP2 MSTORE PUSH1 0x20 ADD PUSH1 0x40 MLOAD DUP1 SWAP2 SUB SWAP1 KECCAK256 PUSH1 0x0 SWAP1 SLOAD SWAP1 PUSH2 0x100 EXP SWAP1 DIV PUSH1 0xFF AND ISZERO PUSH2 0xA2C JUMPI PUSH1 0x40 MLOAD PUSH32 0x8C379A000000000000000000000000000000000000000000000000000000000 DUP2 MSTORE PUSH1 0x4 ADD PUSH2 0xA23 SWAP1 PUSH2 0x1354 JUMP JUMPDEST PUSH1 0x40 MLOAD DUP1 SWAP2 SUB SWAP1 REVERT JUMPDEST PUSH1 0x40 MLOAD DUP1 PUSH1 0x80 ADD PUSH1 0x40 MSTORE DUP1 DUP11 PUSH20 0xFFFFFFFFFFFFFFFFFFFFFFFFFFFFFFFFFFFFFFFF AND DUP2 MSTORE PUSH1 0x20 ADD DUP10 DUP2 MSTORE PUSH1 0x20 ADD DUP5 DUP2 MSTORE PUSH1 0x20 ADD DUP8 DUP2 MSTORE POP PUSH1 0x3 PUSH1 0x0 PUSH1 0x4 SLOAD DUP2 MSTORE PUSH1 0x20 ADD SWAP1 DUP2 MSTORE PUSH1 0x20 ADD PUSH1 0x0 KECCAK256 PUSH1 0x0 DUP3 ADD MLOAD DUP2 PUSH1 0x0 ADD PUSH1 0x0 PUSH2 0x100 EXP DUP2 SLOAD DUP2 PUSH20 0xFFFFFFFFFFFFFFFFFFFFFFFFFFFFFFFFFFFFFFFF MUL NOT AND SWAP1 DUP4 PUSH20 0xFFFFFFFFFFFFFFFFFFFFFFFFFFFFFFFFFFFFFFFF AND MUL OR SWAP1 SSTORE POP PUSH1 0x20 DUP3 ADD MLOAD DUP2 PUSH1 0x1 ADD SWAP1 DUP1 MLOAD SWAP1 PUSH1 0x20 ADD SWAP1 PUSH2 0xADB SWAP3 SWAP2 SWAP1 PUSH2 0xD1E JUMP JUMPDEST POP PUSH1 0x40 DUP3 ADD MLOAD DUP2 PUSH1 0x2 ADD SWAP1 DUP1 MLOAD SWAP1 PUSH1 0x20 ADD SWAP1 PUSH2 0xAF8 SWAP3 SWAP2 SWAP1 PUSH2 0xD1E JUMP JUMPDEST POP PUSH1 0x60 DUP3 ADD MLOAD DUP2 PUSH1 0x3 ADD SWAP1 DUP1 MLOAD SWAP1 PUSH1 0x20 ADD SWAP1 PUSH2 0xB15 SWAP3 SWAP2 SWAP1 PUSH2 0xD1E JUMP JUMPDEST POP SWAP1 POP POP PUSH1 0x1 PUSH1 0x0 DUP1 DUP12 PUSH20 0xFFFFFFFFFFFFFFFFFFFFFFFFFFFFFFFFFFFFFFFF AND PUSH20 0xFFFFFFFFFFFFFFFFFFFFFFFFFFFFFFFFFFFFFFFF AND DUP2 MSTORE PUSH1 0x20 ADD SWAP1 DUP2 MSTORE PUSH1 0x20 ADD PUSH1 0x0 KECCAK256 PUSH1 0x0 PUSH2 0x100 EXP DUP2 SLOAD DUP2 PUSH1 0xFF MUL NOT AND SWAP1 DUP4 ISZERO ISZERO MUL OR SWAP1 SSTORE POP PUSH1 0x1 DUP1 DUP5 PUSH1 0x40 MLOAD PUSH2 0xB81 SWAP2 SWAP1 PUSH2 0x122A JUMP JUMPDEST SWAP1 DUP2 MSTORE PUSH1 0x20 ADD PUSH1 0x40 MLOAD DUP1 SWAP2 SUB SWAP1 KECCAK256 PUSH1 0x0 PUSH2 0x100 EXP DUP2 SLOAD DUP2 PUSH1 0xFF MUL NOT AND SWAP1 DUP4 ISZERO ISZERO MUL OR SWAP1 SSTORE POP PUSH1 0x1 PUSH1 0x2 DUP8 PUSH1 0x40 MLOAD PUSH2 0xBB8 SWAP2 SWAP1 PUSH2 0x122A JUMP JUMPDEST SWAP1 DUP2 MSTORE PUSH1 0x20 ADD PUSH1 0x40 MLOAD DUP1 SWAP2 SUB SWAP1 KECCAK256 PUSH1 0x0 PUSH2 0x100 EXP DUP2 SLOAD DUP2 PUSH1 0xFF MUL NOT AND SWAP1 DUP4 ISZERO ISZERO MUL OR SWAP1 SSTORE POP PUSH1 0x4 PUSH1 0x0 DUP2 SLOAD DUP1 SWAP3 SWAP2 SWAP1 PUSH2 0xBF0 SWAP1 PUSH2 0x15A7 JUMP JUMPDEST SWAP2 SWAP1 POP SSTORE POP POP POP POP POP POP POP POP POP POP JUMP JUMPDEST PUSH1 0x0 PUSH1 0x60 PUSH1 0x4 SLOAD DUP4 LT PUSH2 0xC48 JUMPI PUSH1 0x40 MLOAD PUSH32 0x8C379A000000000000000000000000000000000000000000000000000000000 DUP2 MSTORE PUSH1 0x4 ADD PUSH2 0xC3F SWAP1 PUSH2 0x1334 JUMP JUMPDEST PUSH1 0x40 MLOAD DUP1 SWAP2 SUB SWAP1 REVERT JUMPDEST PUSH1 0x0 PUSH1 0x3 PUSH1 0x0 DUP6 DUP2 MSTORE PUSH1 0x20 ADD SWAP1 DUP2 MSTORE PUSH1 0x20 ADD PUSH1 0x0 KECCAK256 SWAP1 POP DUP1 PUSH1 0x0 ADD PUSH1 0x0 SWAP1 SLOAD SWAP1 PUSH2 0x100 EXP SWAP1 DIV PUSH20 0xFFFFFFFFFFFFFFFFFFFFFFFFFFFFFFFFFFFFFFFF AND DUP2 PUSH1 0x1 ADD DUP1 DUP1 SLOAD PUSH2 0xC94 SWAP1 PUSH2 0x1544 JUMP JUMPDEST DUP1 PUSH1 0x1F ADD PUSH1 0x20 DUP1 SWAP2 DIV MUL PUSH1 0x20 ADD PUSH1 0x40 MLOAD SWAP1 DUP2 ADD PUSH1 0x40 MSTORE DUP1 SWAP3 SWAP2 SWAP1 DUP2 DUP2 MSTORE PUSH1 0x20 ADD DUP3 DUP1 SLOAD PUSH2 0xCC0 SWAP1 PUSH2 0x1544 JUMP JUMPDEST DUP1 ISZERO PUSH2 0xD0D JUMPI DUP1 PUSH1 0x1F LT PUSH2 0xCE2 JUMPI PUSH2 0x100 DUP1 DUP4 SLOAD DIV MUL DUP4 MSTORE SWAP2 PUSH1 0x20 ADD SWAP2 PUSH2 0xD0D JUMP JUMPDEST DUP3 ADD SWAP2 SWAP1 PUSH1 0x0 MSTORE PUSH1 0x20 PUSH1 0x0 KECCAK256 SWAP1 JUMPDEST DUP2 SLOAD DUP2 MSTORE SWAP1 PUSH1 0x1 ADD SWAP1 PUSH1 0x20 ADD DUP1 DUP4 GT PUSH2 0xCF0 JUMPI DUP3 SWAP1 SUB PUSH1 0x1F AND DUP3 ADD SWAP2 JUMPDEST POP POP POP POP POP SWAP1 POP SWAP3 POP SWAP3 POP POP SWAP2 POP SWAP2 JUMP JUMPDEST DUP3 DUP1 SLOAD PUSH2 0xD2A SWAP1 PUSH2 0x1544 JUMP JUMPDEST SWAP1 PUSH1 0x0 MSTORE PUSH1 0x20 PUSH1 0x0 KECCAK256 SWAP1 PUSH1 0x1F ADD PUSH1 0x20 SWAP1 DIV DUP2 ADD SWAP3 DUP3 PUSH2 0xD4C JUMPI PUSH1 0x0 DUP6 SSTORE PUSH2 0xD93 JUMP JUMPDEST DUP3 PUSH1 0x1F LT PUSH2 0xD65 JUMPI DUP1 MLOAD PUSH1 0xFF NOT AND DUP4 DUP1 ADD OR DUP6 SSTORE PUSH2 0xD93 JUMP JUMPDEST DUP3 DUP1 ADD PUSH1 0x1 ADD DUP6 SSTORE DUP3 ISZERO PUSH2 0xD93 JUMPI SWAP2 DUP3 ADD JUMPDEST DUP3 DUP2 GT ISZERO PUSH2 0xD92 JUMPI DUP3 MLOAD DUP3 SSTORE SWAP2 PUSH1 0x20 ADD SWAP2 SWAP1 PUSH1 0x1 ADD SWAP1 PUSH2 0xD77 JUMP JUMPDEST JUMPDEST POP SWAP1 POP PUSH2 0xDA0 SWAP2 SWAP1 PUSH2 0xDA4 JUMP JUMPDEST POP SWAP1 JUMP JUMPDEST JUMPDEST DUP1 DUP3 GT ISZERO PUSH2 0xDBD JUMPI PUSH1 0x0 DUP2 PUSH1 0x0 SWAP1 SSTORE POP PUSH1 0x1 ADD PUSH2 0xDA5 JUMP JUMPDEST POP SWAP1 JUMP JUMPDEST PUSH1 0x0 PUSH2 0xDD4 PUSH2 0xDCF DUP5 PUSH2 0x13D9 JUMP JUMPDEST PUSH2 0x13B4 JUMP JUMPDEST SWAP1 POP DUP3 DUP2 MSTORE PUSH1 0x20 DUP2 ADD DUP5 DUP5 DUP5 ADD GT ISZERO PUSH2 0xDF0 JUMPI PUSH2 0xDEF PUSH2 0x16B1 JUMP JUMPDEST JUMPDEST PUSH2 0xDFB DUP5 DUP3 DUP6 PUSH2 0x1502 JUMP JUMPDEST POP SWAP4 SWAP3 POP POP POP JUMP JUMPDEST PUSH1 0x0 DUP2 CALLDATALOAD SWAP1 POP PUSH2 0xE12 DUP2 PUSH2 0x17C7 JUMP JUMPDEST SWAP3 SWAP2 POP POP JUMP JUMPDEST PUSH1 0x0 DUP2 CALLDATALOAD SWAP1 POP PUSH2 0xE27 DUP2 PUSH2 0x17DE JUMP JUMPDEST SWAP3 SWAP2 POP POP JUMP JUMPDEST PUSH1 0x0 DUP3 PUSH1 0x1F DUP4 ADD SLT PUSH2 0xE42 JUMPI PUSH2 0xE41 PUSH2 0x16AC JUMP JUMPDEST JUMPDEST DUP2 CALLDATALOAD PUSH2 0xE52 DUP5 DUP3 PUSH1 0x20 DUP7 ADD PUSH2 0xDC1 JUMP JUMPDEST SWAP2 POP POP SWAP3 SWAP2 POP POP JUMP JUMPDEST PUSH1 0x0 DUP2 CALLDATALOAD SWAP1 POP PUSH2 0xE6A DUP2 PUSH2 0x17F5 JUMP JUMPDEST SWAP3 SWAP2 POP POP JUMP JUMPDEST PUSH1 0x0 DUP1 PUSH1 0x40 DUP4 DUP6 SUB SLT ISZERO PUSH2 0xE87 JUMPI PUSH2 0xE86 PUSH2 0x16BB JUMP JUMPDEST JUMPDEST PUSH1 0x0 PUSH2 0xE95 DUP6 DUP3 DUP7 ADD PUSH2 0xE18 JUMP JUMPDEST SWAP3 POP POP PUSH1 0x20 PUSH2 0xEA6 DUP6 DUP3 DUP7 ADD PUSH2 0xE5B JUMP JUMPDEST SWAP2 POP POP SWAP3 POP SWAP3 SWAP1 POP JUMP JUMPDEST PUSH1 0x0 DUP1 PUSH1 0x0 DUP1 PUSH1 0x80 DUP6 DUP8 SUB SLT ISZERO PUSH2 0xECA JUMPI PUSH2 0xEC9 PUSH2 0x16BB JUMP JUMPDEST JUMPDEST PUSH1 0x0 PUSH2 0xED8 DUP8 DUP3 DUP9 ADD PUSH2 0xE03 JUMP JUMPDEST SWAP5 POP POP PUSH1 0x20 DUP6 ADD CALLDATALOAD PUSH8 0xFFFFFFFFFFFFFFFF DUP2 GT ISZERO PUSH2 0xEF9 JUMPI PUSH2 0xEF8 PUSH2 0x16B6 JUMP JUMPDEST JUMPDEST PUSH2 0xF05 DUP8 DUP3 DUP9 ADD PUSH2 0xE2D JUMP JUMPDEST SWAP4 POP POP PUSH1 0x40 DUP6 ADD CALLDATALOAD PUSH8 0xFFFFFFFFFFFFFFFF DUP2 GT ISZERO PUSH2 0xF26 JUMPI PUSH2 0xF25 PUSH2 0x16B6 JUMP JUMPDEST JUMPDEST PUSH2 0xF32 DUP8 DUP3 DUP9 ADD PUSH2 0xE2D JUMP JUMPDEST SWAP3 POP POP PUSH1 0x60 DUP6 ADD CALLDATALOAD PUSH8 0xFFFFFFFFFFFFFFFF DUP2 GT ISZERO PUSH2 0xF53 JUMPI PUSH2 0xF52 PUSH2 0x16B6 JUMP JUMPDEST JUMPDEST PUSH2 0xF5F DUP8 DUP3 DUP9 ADD PUSH2 0xE2D JUMP JUMPDEST SWAP2 POP POP SWAP3 SWAP6 SWAP2 SWAP5 POP SWAP3 POP JUMP JUMPDEST PUSH1 0x0 PUSH1 0x20 DUP3 DUP5 SUB SLT ISZERO PUSH2 0xF81 JUMPI PUSH2 0xF80 PUSH2 0x16BB JUMP JUMPDEST JUMPDEST PUSH1 0x0 PUSH2 0xF8F DUP5 DUP3 DUP6 ADD PUSH2 0xE5B JUMP JUMPDEST SWAP2 POP POP SWAP3 SWAP2 POP POP JUMP JUMPDEST PUSH1 0x0 PUSH2 0xFA4 DUP4 DUP4 PUSH2 0xFC4 JUMP JUMPDEST PUSH1 0x20 DUP4 ADD SWAP1 POP SWAP3 SWAP2 POP POP JUMP JUMPDEST PUSH1 0x0 PUSH2 0xFBC DUP4 DUP4 PUSH2 0x10B5 JUMP JUMPDEST SWAP1 POP SWAP3 SWAP2 POP POP JUMP JUMPDEST PUSH2 0xFCD DUP2 PUSH2 0x14B4 JUMP JUMPDEST DUP3 MSTORE POP POP JUMP JUMPDEST PUSH2 0xFDC DUP2 PUSH2 0x14B4 JUMP JUMPDEST DUP3 MSTORE POP POP JUMP JUMPDEST PUSH1 0x0 PUSH2 0xFED DUP3 PUSH2 0x142A JUMP JUMPDEST PUSH2 0xFF7 DUP2 DUP6 PUSH2 0x1465 JUMP JUMPDEST SWAP4 POP PUSH2 0x1002 DUP4 PUSH2 0x140A JUMP JUMPDEST DUP1 PUSH1 0x0 JUMPDEST DUP4 DUP2 LT ISZERO PUSH2 0x1033 JUMPI DUP2 MLOAD PUSH2 0x101A DUP9 DUP3 PUSH2 0xF98 JUMP JUMPDEST SWAP8 POP PUSH2 0x1025 DUP4 PUSH2 0x144B JUMP JUMPDEST SWAP3 POP POP PUSH1 0x1 DUP2 ADD SWAP1 POP PUSH2 0x1006 JUMP JUMPDEST POP DUP6 SWAP4 POP POP POP POP SWAP3 SWAP2 POP POP JUMP JUMPDEST PUSH1 0x0 PUSH2 0x104B DUP3 PUSH2 0x1435 JUMP JUMPDEST PUSH2 0x1055 DUP2 DUP6 PUSH2 0x1476 JUMP JUMPDEST SWAP4 POP DUP4 PUSH1 0x20 DUP3 MUL DUP6 ADD PUSH2 0x1067 DUP6 PUSH2 0x141A JUMP JUMPDEST DUP1 PUSH1 0x0 JUMPDEST DUP6 DUP2 LT ISZERO PUSH2 0x10A3 JUMPI DUP5 DUP5 SUB DUP10 MSTORE DUP2 MLOAD PUSH2 0x1084 DUP6 DUP3 PUSH2 0xFB0 JUMP JUMPDEST SWAP5 POP PUSH2 0x108F DUP4 PUSH2 0x1458 JUMP JUMPDEST SWAP3 POP PUSH1 0x20 DUP11 ADD SWAP10 POP POP PUSH1 0x1 DUP2 ADD SWAP1 POP PUSH2 0x106B JUMP JUMPDEST POP DUP3 SWAP8 POP DUP8 SWAP6 POP POP POP POP POP POP SWAP3 SWAP2 POP POP JUMP JUMPDEST PUSH1 0x0 PUSH2 0x10C0 DUP3 PUSH2 0x1440 JUMP JUMPDEST PUSH2 0x10CA DUP2 DUP6 PUSH2 0x1487 JUMP JUMPDEST SWAP4 POP PUSH2 0x10DA DUP2 DUP6 PUSH1 0x20 DUP7 ADD PUSH2 0x1511 JUMP JUMPDEST PUSH2 0x10E3 DUP2 PUSH2 0x16C0 JUMP JUMPDEST DUP5 ADD SWAP2 POP POP SWAP3 SWAP2 POP POP JUMP JUMPDEST PUSH1 0x0 PUSH2 0x10F9 DUP3 PUSH2 0x1440 JUMP JUMPDEST PUSH2 0x1103 DUP2 DUP6 PUSH2 0x1498 JUMP JUMPDEST SWAP4 POP PUSH2 0x1113 DUP2 DUP6 PUSH1 0x20 DUP7 ADD PUSH2 0x1511 JUMP JUMPDEST PUSH2 0x111C DUP2 PUSH2 0x16C0 JUMP JUMPDEST DUP5 ADD SWAP2 POP POP SWAP3 SWAP2 POP POP JUMP JUMPDEST PUSH1 0x0 PUSH2 0x1132 DUP3 PUSH2 0x1440 JUMP JUMPDEST PUSH2 0x113C DUP2 DUP6 PUSH2 0x14A9 JUMP JUMPDEST SWAP4 POP PUSH2 0x114C DUP2 DUP6 PUSH1 0x20 DUP7 ADD PUSH2 0x1511 JUMP JUMPDEST DUP1 DUP5 ADD SWAP2 POP POP SWAP3 SWAP2 POP POP JUMP JUMPDEST PUSH1 0x0 PUSH2 0x1165 PUSH1 0x15 DUP4 PUSH2 0x1498 JUMP JUMPDEST SWAP2 POP PUSH2 0x1170 DUP3 PUSH2 0x16D1 JUMP JUMPDEST PUSH1 0x20 DUP3 ADD SWAP1 POP SWAP2 SWAP1 POP JUMP JUMPDEST PUSH1 0x0 PUSH2 0x1188 PUSH1 0x1D DUP4 PUSH2 0x1498 JUMP JUMPDEST SWAP2 POP PUSH2 0x1193 DUP3 PUSH2 0x16FA JUMP JUMPDEST PUSH1 0x20 DUP3 ADD SWAP1 POP SWAP2 SWAP1 POP JUMP JUMPDEST PUSH1 0x0 PUSH2 0x11AB PUSH1 0xD DUP4 PUSH2 0x1498 JUMP JUMPDEST SWAP2 POP PUSH2 0x11B6 DUP3 PUSH2 0x1723 JUMP JUMPDEST PUSH1 0x20 DUP3 ADD SWAP1 POP SWAP2 SWAP1 POP JUMP JUMPDEST PUSH1 0x0 PUSH2 0x11CE PUSH1 0x14 DUP4 PUSH2 0x1498 JUMP JUMPDEST SWAP2 POP PUSH2 0x11D9 DUP3 PUSH2 0x174C JUMP JUMPDEST PUSH1 0x20 DUP3 ADD SWAP1 POP SWAP2 SWAP1 POP JUMP JUMPDEST PUSH1 0x0 PUSH2 0x11F1 PUSH1 0x1E DUP4 PUSH2 0x1498 JUMP JUMPDEST SWAP2 POP PUSH2 0x11FC DUP3 PUSH2 0x1775 JUMP JUMPDEST PUSH1 0x20 DUP3 ADD SWAP1 POP SWAP2 SWAP1 POP JUMP JUMPDEST PUSH1 0x0 PUSH2 0x1214 PUSH1 0x1D DUP4 PUSH2 0x1498 JUMP JUMPDEST SWAP2 POP PUSH2 0x121F DUP3 PUSH2 0x179E JUMP JUMPDEST PUSH1 0x20 DUP3 ADD SWAP1 POP SWAP2 SWAP1 POP JUMP JUMPDEST PUSH1 0x0 PUSH2 0x1236 DUP3 DUP5 PUSH2 0x1127 JUMP JUMPDEST SWAP2 POP DUP2 SWAP1 POP SWAP3 SWAP2 POP POP JUMP JUMPDEST PUSH1 0x0 PUSH1 0x40 DUP3 ADD SWAP1 POP PUSH2 0x1256 PUSH1 0x0 DUP4 ADD DUP6 PUSH2 0xFD3 JUMP JUMPDEST DUP2 DUP2 SUB PUSH1 0x20 DUP4 ADD MSTORE PUSH2 0x1268 DUP2 DUP5 PUSH2 0x10EE JUMP JUMPDEST SWAP1 POP SWAP4 SWAP3 POP POP POP JUMP JUMPDEST PUSH1 0x0 PUSH1 0x80 DUP3 ADD SWAP1 POP DUP2 DUP2 SUB PUSH1 0x0 DUP4 ADD MSTORE PUSH2 0x128B DUP2 DUP8 PUSH2 0xFE2 JUMP JUMPDEST SWAP1 POP DUP2 DUP2 SUB PUSH1 0x20 DUP4 ADD MSTORE PUSH2 0x129F DUP2 DUP7 PUSH2 0x1040 JUMP JUMPDEST SWAP1 POP DUP2 DUP2 SUB PUSH1 0x40 DUP4 ADD MSTORE PUSH2 0x12B3 DUP2 DUP6 PUSH2 0x1040 JUMP JUMPDEST SWAP1 POP DUP2 DUP2 SUB PUSH1 0x60 DUP4 ADD MSTORE PUSH2 0x12C7 DUP2 DUP5 PUSH2 0x1040 JUMP JUMPDEST SWAP1 POP SWAP6 SWAP5 POP POP POP POP POP JUMP JUMPDEST PUSH1 0x0 PUSH1 0x20 DUP3 ADD SWAP1 POP DUP2 DUP2 SUB PUSH1 0x0 DUP4 ADD MSTORE PUSH2 0x12EC DUP2 DUP5 PUSH2 0x1040 JUMP JUMPDEST SWAP1 POP SWAP3 SWAP2 POP POP JUMP JUMPDEST PUSH1 0x0 PUSH1 0x20 DUP3 ADD SWAP1 POP DUP2 DUP2 SUB PUSH1 0x0 DUP4 ADD MSTORE PUSH2 0x130D DUP2 PUSH2 0x1158 JUMP JUMPDEST SWAP1 POP SWAP2 SWAP1 POP JUMP JUMPDEST PUSH1 0x0 PUSH1 0x20 DUP3 ADD SWAP1 POP DUP2 DUP2 SUB PUSH1 0x0 DUP4 ADD MSTORE PUSH2 0x132D DUP2 PUSH2 0x117B JUMP JUMPDEST SWAP1 POP SWAP2 SWAP1 POP JUMP JUMPDEST PUSH1 0x0 PUSH1 0x20 DUP3 ADD SWAP1 POP DUP2 DUP2 SUB PUSH1 0x0 DUP4 ADD MSTORE PUSH2 0x134D DUP2 PUSH2 0x119E JUMP JUMPDEST SWAP1 POP SWAP2 SWAP1 POP JUMP JUMPDEST PUSH1 0x0 PUSH1 0x20 DUP3 ADD SWAP1 POP DUP2 DUP2 SUB PUSH1 0x0 DUP4 ADD MSTORE PUSH2 0x136D DUP2 PUSH2 0x11C1 JUMP JUMPDEST SWAP1 POP SWAP2 SWAP1 POP JUMP JUMPDEST PUSH1 0x0 PUSH1 0x20 DUP3 ADD SWAP1 POP DUP2 DUP2 SUB PUSH1 0x0 DUP4 ADD MSTORE PUSH2 0x138D DUP2 PUSH2 0x11E4 JUMP JUMPDEST SWAP1 POP SWAP2 SWAP1 POP JUMP JUMPDEST PUSH1 0x0 PUSH1 0x20 DUP3 ADD SWAP1 POP DUP2 DUP2 SUB PUSH1 0x0 DUP4 ADD MSTORE PUSH2 0x13AD DUP2 PUSH2 0x1207 JUMP JUMPDEST SWAP1 POP SWAP2 SWAP1 POP JUMP JUMPDEST PUSH1 0x0 PUSH2 0x13BE PUSH2 0x13CF JUMP JUMPDEST SWAP1 POP PUSH2 0x13CA DUP3 DUP3 PUSH2 0x1576 JUMP JUMPDEST SWAP2 SWAP1 POP JUMP JUMPDEST PUSH1 0x0 PUSH1 0x40 MLOAD SWAP1 POP SWAP1 JUMP JUMPDEST PUSH1 0x0 PUSH8 0xFFFFFFFFFFFFFFFF DUP3 GT ISZERO PUSH2 0x13F4 JUMPI PUSH2 0x13F3 PUSH2 0x167D JUMP JUMPDEST JUMPDEST PUSH2 0x13FD DUP3 PUSH2 0x16C0 JUMP JUMPDEST SWAP1 POP PUSH1 0x20 DUP2 ADD SWAP1 POP SWAP2 SWAP1 POP JUMP JUMPDEST PUSH1 0x0 DUP2 SWAP1 POP PUSH1 0x20 DUP3 ADD SWAP1 POP SWAP2 SWAP1 POP JUMP JUMPDEST PUSH1 0x0 DUP2 SWAP1 POP PUSH1 0x20 DUP3 ADD SWAP1 POP SWAP2 SWAP1 POP JUMP JUMPDEST PUSH1 0x0 DUP2 MLOAD SWAP1 POP SWAP2 SWAP1 POP JUMP JUMPDEST PUSH1 0x0 DUP2 MLOAD SWAP1 POP SWAP2 SWAP1 POP JUMP JUMPDEST PUSH1 0x0 DUP2 MLOAD SWAP1 POP SWAP2 SWAP1 POP JUMP JUMPDEST PUSH1 0x0 PUSH1 0x20 DUP3 ADD SWAP1 POP SWAP2 SWAP1 POP JUMP JUMPDEST PUSH1 0x0 PUSH1 0x20 DUP3 ADD SWAP1 POP SWAP2 SWAP1 POP JUMP JUMPDEST PUSH1 0x0 DUP3 DUP3 MSTORE PUSH1 0x20 DUP3 ADD SWAP1 POP SWAP3 SWAP2 POP POP JUMP JUMPDEST PUSH1 0x0 DUP3 DUP3 MSTORE PUSH1 0x20 DUP3 ADD SWAP1 POP SWAP3 SWAP2 POP POP JUMP JUMPDEST PUSH1 0x0 DUP3 DUP3 MSTORE PUSH1 0x20 DUP3 ADD SWAP1 POP SWAP3 SWAP2 POP POP JUMP JUMPDEST PUSH1 0x0 DUP3 DUP3 MSTORE PUSH1 0x20 DUP3 ADD SWAP1 POP SWAP3 SWAP2 POP POP JUMP JUMPDEST PUSH1 0x0 DUP2 SWAP1 POP SWAP3 SWAP2 POP POP JUMP JUMPDEST PUSH1 0x0 PUSH2 0x14BF DUP3 PUSH2 0x14D8 JUMP JUMPDEST SWAP1 POP SWAP2 SWAP1 POP JUMP JUMPDEST PUSH1 0x0 PUSH2 0x14D1 DUP3 PUSH2 0x14D8 JUMP JUMPDEST SWAP1 POP SWAP2 SWAP1 POP JUMP JUMPDEST PUSH1 0x0 PUSH20 0xFFFFFFFFFFFFFFFFFFFFFFFFFFFFFFFFFFFFFFFF DUP3 AND SWAP1 POP SWAP2 SWAP1 POP JUMP JUMPDEST PUSH1 0x0 DUP2 SWAP1 POP SWAP2 SWAP1 POP JUMP JUMPDEST DUP3 DUP2 DUP4 CALLDATACOPY PUSH1 0x0 DUP4 DUP4 ADD MSTORE POP POP POP JUMP JUMPDEST PUSH1 0x0 JUMPDEST DUP4 DUP2 LT ISZERO PUSH2 0x152F JUMPI DUP1 DUP3 ADD MLOAD DUP2 DUP5 ADD MSTORE PUSH1 0x20 DUP2 ADD SWAP1 POP PUSH2 0x1514 JUMP JUMPDEST DUP4 DUP2 GT ISZERO PUSH2 0x153E JUMPI PUSH1 0x0 DUP5 DUP5 ADD MSTORE JUMPDEST POP POP POP POP JUMP JUMPDEST PUSH1 0x0 PUSH1 0x2 DUP3 DIV SWAP1 POP PUSH1 0x1 DUP3 AND DUP1 PUSH2 0x155C JUMPI PUSH1 0x7F DUP3 AND SWAP2 POP JUMPDEST PUSH1 0x20 DUP3 LT DUP2 EQ ISZERO PUSH2 0x1570 JUMPI PUSH2 0x156F PUSH2 0x161F JUMP JUMPDEST JUMPDEST POP SWAP2 SWAP1 POP JUMP JUMPDEST PUSH2 0x157F DUP3 PUSH2 0x16C0 JUMP JUMPDEST DUP2 ADD DUP2 DUP2 LT PUSH8 0xFFFFFFFFFFFFFFFF DUP3 GT OR ISZERO PUSH2 0x159E JUMPI PUSH2 0x159D PUSH2 0x167D JUMP JUMPDEST JUMPDEST DUP1 PUSH1 0x40 MSTORE POP POP POP JUMP JUMPDEST PUSH1 0x0 PUSH2 0x15B2 DUP3 PUSH2 0x14F8 JUMP JUMPDEST SWAP2 POP PUSH32 0xFFFFFFFFFFFFFFFFFFFFFFFFFFFFFFFFFFFFFFFFFFFFFFFFFFFFFFFFFFFFFFFF DUP3 EQ ISZERO PUSH2 0x15E5 JUMPI PUSH2 0x15E4 PUSH2 0x15F0 JUMP JUMPDEST JUMPDEST PUSH1 0x1 DUP3 ADD SWAP1 POP SWAP2 SWAP1 POP JUMP JUMPDEST PUSH32 0x4E487B7100000000000000000000000000000000000000000000000000000000 PUSH1 0x0 MSTORE PUSH1 0x11 PUSH1 0x4 MSTORE PUSH1 0x24 PUSH1 0x0 REVERT JUMPDEST PUSH32 0x4E487B7100000000000000000000000000000000000000000000000000000000 PUSH1 0x0 MSTORE PUSH1 0x22 PUSH1 0x4 MSTORE PUSH1 0x24 PUSH1 0x0 REVERT JUMPDEST PUSH32 0x4E487B7100000000000000000000000000000000000000000000000000000000 PUSH1 0x0 MSTORE PUSH1 0x32 PUSH1 0x4 MSTORE PUSH1 0x24 PUSH1 0x0 REVERT JUMPDEST PUSH32 0x4E487B7100000000000000000000000000000000000000000000000000000000 PUSH1 0x0 MSTORE PUSH1 0x41 PUSH1 0x4 MSTORE PUSH1 0x24 PUSH1 0x0 REVERT JUMPDEST PUSH1 0x0 DUP1 REVERT JUMPDEST PUSH1 0x0 DUP1 REVERT JUMPDEST PUSH1 0x0 DUP1 REVERT JUMPDEST PUSH1 0x0 DUP1 REVERT JUMPDEST PUSH1 0x0 PUSH1 0x1F NOT PUSH1 0x1F DUP4 ADD AND SWAP1 POP SWAP2 SWAP1 POP JUMP JUMPDEST PUSH32 0x496E76616C696420656D61696C20616464726573730000000000000000000000 PUSH1 0x0 DUP3 ADD MSTORE POP JUMP JUMPDEST PUSH32 0x496E76616C69642041616468616172206E756D626572206C656E677468000000 PUSH1 0x0 DUP3 ADD MSTORE POP JUMP JUMPDEST PUSH32 0x496E76616C696420696E64657800000000000000000000000000000000000000 PUSH1 0x0 DUP3 ADD MSTORE POP JUMP JUMPDEST PUSH32 0x456D61696C20616C726561647920657869737473000000000000000000000000 PUSH1 0x0 DUP3 ADD MSTORE POP JUMP JUMPDEST PUSH32 0x4163636F756E74206164647265737320616C7265616479206578697374730000 PUSH1 0x0 DUP3 ADD MSTORE POP JUMP JUMPDEST PUSH32 0x41616468616172206E756D62657220616C726561647920657869737473000000 PUSH1 0x0 DUP3 ADD MSTORE POP JUMP JUMPDEST PUSH2 0x17D0 DUP2 PUSH2 0x14B4 JUMP JUMPDEST DUP2 EQ PUSH2 0x17DB JUMPI PUSH1 0x0 DUP1 REVERT JUMPDEST POP JUMP JUMPDEST PUSH2 0x17E7 DUP2 PUSH2 0x14C6 JUMP JUMPDEST DUP2 EQ PUSH2 0x17F2 JUMPI PUSH1 0x0 DUP1 REVERT JUMPDEST POP JUMP JUMPDEST PUSH2 0x17FE DUP2 PUSH2 0x14F8 JUMP JUMPDEST DUP2 EQ PUSH2 0x1809 JUMPI PUSH1 0x0 DUP1 REVERT JUMPDEST POP JUMP INVALID LOG2 PUSH5 0x6970667358 0x22 SLT KECCAK256 RETURNDATASIZE 0x25 DIFFICULTY 0xCD 0x28 0x1F 0xB5 0xB6 SWAP16 COINBASE DUP2 0xD0 0x4A SLT 0x4E PUSH25 0xB81A1EF8C166E93CE4F2F5FBBA8EE3D964736F6C6343000806 STOP CALLER "
		},
		"gasEstimates": {
			"creation": {
				"codeDepositCost": "1242000",
				"executionCost": "1295",
				"totalCost": "1243295"
			},
			"external": {
				"addAccount(address,string,string,string)": "infinite",
				"getAccount(uint256)": "infinite",
				"getAllAccounts()": "infinite",
				"recieveEther()": "164",
				"showAccountNames()": "infinite",
				"transferEther(address,uint256)": "infinite"
			},
			"internal": {
				"getAccountIndex(address)": "infinite"
			}
		},
		"methodIdentifiers": {
			"addAccount(address,string,string,string)": "9aba6a54",
			"getAccount(uint256)": "ce88b145",
			"getAllAccounts()": "08e93d0a",
			"recieveEther()": "8f4062d7",
			"showAccountNames()": "046f0a49",
			"transferEther(address,uint256)": "05b1137b"
		}
	},
	"abi": [
		{
			"inputs": [
				{
					"internalType": "address",
					"name": "_accountAddress",
					"type": "address"
				},
				{
					"internalType": "string",
					"name": "_name",
					"type": "string"
				},
				{
					"internalType": "string",
					"name": "_aadharNumber",
					"type": "string"
				},
				{
					"internalType": "string",
					"name": "_email",
					"type": "string"
				}
			],
			"name": "addAccount",
			"outputs": [],
			"stateMutability": "nonpayable",
			"type": "function"
		},
		{
			"inputs": [
				{
					"internalType": "uint256",
					"name": "_index",
					"type": "uint256"
				}
			],
			"name": "getAccount",
			"outputs": [
				{
					"internalType": "address",
					"name": "",
					"type": "address"
				},
				{
					"internalType": "string",
					"name": "",
					"type": "string"
				}
			],
			"stateMutability": "view",
			"type": "function"
		},
		{
			"inputs": [],
			"name": "getAllAccounts",
			"outputs": [
				{
					"internalType": "address[]",
					"name": "",
					"type": "address[]"
				},
				{
					"internalType": "string[]",
					"name": "",
					"type": "string[]"
				},
				{
					"internalType": "string[]",
					"name": "",
					"type": "string[]"
				},
				{
					"internalType": "string[]",
					"name": "",
					"type": "string[]"
				}
			],
			"stateMutability": "view",
			"type": "function"
		},
		{
			"inputs": [],
			"name": "recieveEther",
			"outputs": [],
			"stateMutability": "payable",
			"type": "function"
		},
		{
			"inputs": [],
			"name": "showAccountNames",
			"outputs": [
				{
					"internalType": "string[]",
					"name": "",
					"type": "string[]"
				}
			],
			"stateMutability": "view",
			"type": "function"
		},
		{
			"inputs": [
				{
					"internalType": "address payable",
					"name": "add",
					"type": "address"
				},
				{
					"internalType": "uint256",
					"name": "amt",
					"type": "uint256"
				}
			],
			"name": "transferEther",
			"outputs": [],
			"stateMutability": "nonpayable",
			"type": "function"
		}
	]
}