{
	"data": {
		"bytecode": {
			"linkReferences": {},
			"object": "608060405234801561001057600080fd5b506108cf806100206000396000f3fe608060405234801561001057600080fd5b50600436106100625760003560e01c806307973ccf1461006757806318b8275a14610085578063697cb94e146100a15780638459254e146100bd578063a87430ba146100d9578063f3c95c601461010a575b600080fd5b61006f61013a565b60405161007c919061060d565b60405180910390f35b61009f600480360381019061009a9190610522565b610140565b005b6100bb60048036038101906100b691906104f5565b6101f1565b005b6100d760048036038101906100d291906104f5565b610254565b005b6100f360048036038101906100ee91906104f5565b6102b7565b6040516101019291906105dd565b60405180910390f35b610124600480360381019061011f91906104f5565b610370565b60405161013191906105c2565b60405180910390f35b60015481565b6001600081548092919061015390610787565b91905055506040518060400160405280828152602001600115158152506000803373ffffffffffffffffffffffffffffffffffffffff1673ffffffffffffffffffffffffffffffffffffffff16815260200190815260200160002060008201518160000190805190602001906101ca9291906103cd565b5060208201518160010160006101000a81548160ff02191690831515021790555090505050565b60008060008373ffffffffffffffffffffffffffffffffffffffff1673ffffffffffffffffffffffffffffffffffffffff168152602001908152602001600020905060008160010160006101000a81548160ff0219169083151502179055505050565b60008060008373ffffffffffffffffffffffffffffffffffffffff1673ffffffffffffffffffffffffffffffffffffffff168152602001908152602001600020905060018160010160006101000a81548160ff0219169083151502179055505050565b60006020528060005260406000206000915090508060000180546102da90610724565b80601f016020809104026020016040519081016040528092919081815260200182805461030690610724565b80156103535780601f1061032857610100808354040283529160200191610353565b820191906000526020600020905b81548152906001019060200180831161033657829003601f168201915b5050505050908060010160009054906101000a900460ff16905082565b6000806000808473ffffffffffffffffffffffffffffffffffffffff1673ffffffffffffffffffffffffffffffffffffffff16815260200190815260200160002090508060010160009054906101000a900460ff16915050919050565b8280546103d990610724565b90600052602060002090601f0160209004810192826103fb5760008555610442565b82601f1061041457805160ff1916838001178555610442565b82800160010185558215610442579182015b82811115610441578251825591602001919060010190610426565b5b50905061044f9190610453565b5090565b5b8082111561046c576000816000905550600101610454565b5090565b600061048361047e8461064d565b610628565b90508281526020810184848401111561049f5761049e610862565b5b6104aa8482856106e2565b509392505050565b6000813590506104c181610882565b92915050565b600082601f8301126104dc576104db61085d565b5b81356104ec848260208601610470565b91505092915050565b60006020828403121561050b5761050a61086c565b5b6000610519848285016104b2565b91505092915050565b6000602082840312156105385761053761086c565b5b600082013567ffffffffffffffff81111561055657610555610867565b5b610562848285016104c7565b91505092915050565b610574816106ac565b82525050565b60006105858261067e565b61058f8185610689565b935061059f8185602086016106f1565b6105a881610871565b840191505092915050565b6105bc816106d8565b82525050565b60006020820190506105d7600083018461056b565b92915050565b600060408201905081810360008301526105f7818561057a565b9050610606602083018461056b565b9392505050565b600060208201905061062260008301846105b3565b92915050565b6000610632610643565b905061063e8282610756565b919050565b6000604051905090565b600067ffffffffffffffff8211156106685761066761082e565b5b61067182610871565b9050602081019050919050565b600081519050919050565b600082825260208201905092915050565b60006106a5826106b8565b9050919050565b60008115159050919050565b600073ffffffffffffffffffffffffffffffffffffffff82169050919050565b6000819050919050565b82818337600083830152505050565b60005b8381101561070f5780820151818401526020810190506106f4565b8381111561071e576000848401525b50505050565b6000600282049050600182168061073c57607f821691505b602082108114156107505761074f6107ff565b5b50919050565b61075f82610871565b810181811067ffffffffffffffff8211171561077e5761077d61082e565b5b80604052505050565b6000610792826106d8565b91507fffffffffffffffffffffffffffffffffffffffffffffffffffffffffffffffff8214156107c5576107c46107d0565b5b600182019050919050565b7f4e487b7100000000000000000000000000000000000000000000000000000000600052601160045260246000fd5b7f4e487b7100000000000000000000000000000000000000000000000000000000600052602260045260246000fd5b7f4e487b7100000000000000000000000000000000000000000000000000000000600052604160045260246000fd5b600080fd5b600080fd5b600080fd5b600080fd5b6000601f19601f8301169050919050565b61088b8161069a565b811461089657600080fd5b5056fea2646970667358221220b9594dfb2d3ec86ee65ff18d37fd1db282809c59f6c02cb9e76873cd81dd7d9164736f6c63430008060033",
			"opcodes": "PUSH1 0x80 PUSH1 0x40 MSTORE CALLVALUE DUP1 ISZERO PUSH2 0x10 JUMPI PUSH1 0x0 DUP1 REVERT JUMPDEST POP PUSH2 0x8CF DUP1 PUSH2 0x20 PUSH1 0x0 CODECOPY PUSH1 0x0 RETURN INVALID PUSH1 0x80 PUSH1 0x40 MSTORE CALLVALUE DUP1 ISZERO PUSH2 0x10 JUMPI PUSH1 0x0 DUP1 REVERT JUMPDEST POP PUSH1 0x4 CALLDATASIZE LT PUSH2 0x62 JUMPI PUSH1 0x0 CALLDATALOAD PUSH1 0xE0 SHR DUP1 PUSH4 0x7973CCF EQ PUSH2 0x67 JUMPI DUP1 PUSH4 0x18B8275A EQ PUSH2 0x85 JUMPI DUP1 PUSH4 0x697CB94E EQ PUSH2 0xA1 JUMPI DUP1 PUSH4 0x8459254E EQ PUSH2 0xBD JUMPI DUP1 PUSH4 0xA87430BA EQ PUSH2 0xD9 JUMPI DUP1 PUSH4 0xF3C95C60 EQ PUSH2 0x10A JUMPI JUMPDEST PUSH1 0x0 DUP1 REVERT JUMPDEST PUSH2 0x6F PUSH2 0x13A JUMP JUMPDEST PUSH1 0x40 MLOAD PUSH2 0x7C SWAP2 SWAP1 PUSH2 0x60D JUMP JUMPDEST PUSH1 0x40 MLOAD DUP1 SWAP2 SUB SWAP1 RETURN JUMPDEST PUSH2 0x9F PUSH1 0x4 DUP1 CALLDATASIZE SUB DUP2 ADD SWAP1 PUSH2 0x9A SWAP2 SWAP1 PUSH2 0x522 JUMP JUMPDEST PUSH2 0x140 JUMP JUMPDEST STOP JUMPDEST PUSH2 0xBB PUSH1 0x4 DUP1 CALLDATASIZE SUB DUP2 ADD SWAP1 PUSH2 0xB6 SWAP2 SWAP1 PUSH2 0x4F5 JUMP JUMPDEST PUSH2 0x1F1 JUMP JUMPDEST STOP JUMPDEST PUSH2 0xD7 PUSH1 0x4 DUP1 CALLDATASIZE SUB DUP2 ADD SWAP1 PUSH2 0xD2 SWAP2 SWAP1 PUSH2 0x4F5 JUMP JUMPDEST PUSH2 0x254 JUMP JUMPDEST STOP JUMPDEST PUSH2 0xF3 PUSH1 0x4 DUP1 CALLDATASIZE SUB DUP2 ADD SWAP1 PUSH2 0xEE SWAP2 SWAP1 PUSH2 0x4F5 JUMP JUMPDEST PUSH2 0x2B7 JUMP JUMPDEST PUSH1 0x40 MLOAD PUSH2 0x101 SWAP3 SWAP2 SWAP1 PUSH2 0x5DD JUMP JUMPDEST PUSH1 0x40 MLOAD DUP1 SWAP2 SUB SWAP1 RETURN JUMPDEST PUSH2 0x124 PUSH1 0x4 DUP1 CALLDATASIZE SUB DUP2 ADD SWAP1 PUSH2 0x11F SWAP2 SWAP1 PUSH2 0x4F5 JUMP JUMPDEST PUSH2 0x370 JUMP JUMPDEST PUSH1 0x40 MLOAD PUSH2 0x131 SWAP2 SWAP1 PUSH2 0x5C2 JUMP JUMPDEST PUSH1 0x40 MLOAD DUP1 SWAP2 SUB SWAP1 RETURN JUMPDEST PUSH1 0x1 SLOAD DUP2 JUMP JUMPDEST PUSH1 0x1 PUSH1 0x0 DUP2 SLOAD DUP1 SWAP3 SWAP2 SWAP1 PUSH2 0x153 SWAP1 PUSH2 0x787 JUMP JUMPDEST SWAP2 SWAP1 POP SSTORE POP PUSH1 0x40 MLOAD DUP1 PUSH1 0x40 ADD PUSH1 0x40 MSTORE DUP1 DUP3 DUP2 MSTORE PUSH1 0x20 ADD PUSH1 0x1 ISZERO ISZERO DUP2 MSTORE POP PUSH1 0x0 DUP1 CALLER PUSH20 0xFFFFFFFFFFFFFFFFFFFFFFFFFFFFFFFFFFFFFFFF AND PUSH20 0xFFFFFFFFFFFFFFFFFFFFFFFFFFFFFFFFFFFFFFFF AND DUP2 MSTORE PUSH1 0x20 ADD SWAP1 DUP2 MSTORE PUSH1 0x20 ADD PUSH1 0x0 KECCAK256 PUSH1 0x0 DUP3 ADD MLOAD DUP2 PUSH1 0x0 ADD SWAP1 DUP1 MLOAD SWAP1 PUSH1 0x20 ADD SWAP1 PUSH2 0x1CA SWAP3 SWAP2 SWAP1 PUSH2 0x3CD JUMP JUMPDEST POP PUSH1 0x20 DUP3 ADD MLOAD DUP2 PUSH1 0x1 ADD PUSH1 0x0 PUSH2 0x100 EXP DUP2 SLOAD DUP2 PUSH1 0xFF MUL NOT AND SWAP1 DUP4 ISZERO ISZERO MUL OR SWAP1 SSTORE POP SWAP1 POP POP POP JUMP JUMPDEST PUSH1 0x0 DUP1 PUSH1 0x0 DUP4 PUSH20 0xFFFFFFFFFFFFFFFFFFFFFFFFFFFFFFFFFFFFFFFF AND PUSH20 0xFFFFFFFFFFFFFFFFFFFFFFFFFFFFFFFFFFFFFFFF AND DUP2 MSTORE PUSH1 0x20 ADD SWAP1 DUP2 MSTORE PUSH1 0x20 ADD PUSH1 0x0 KECCAK256 SWAP1 POP PUSH1 0x0 DUP2 PUSH1 0x1 ADD PUSH1 0x0 PUSH2 0x100 EXP DUP2 SLOAD DUP2 PUSH1 0xFF MUL NOT AND SWAP1 DUP4 ISZERO ISZERO MUL OR SWAP1 SSTORE POP POP POP JUMP JUMPDEST PUSH1 0x0 DUP1 PUSH1 0x0 DUP4 PUSH20 0xFFFFFFFFFFFFFFFFFFFFFFFFFFFFFFFFFFFFFFFF AND PUSH20 0xFFFFFFFFFFFFFFFFFFFFFFFFFFFFFFFFFFFFFFFF AND DUP2 MSTORE PUSH1 0x20 ADD SWAP1 DUP2 MSTORE PUSH1 0x20 ADD PUSH1 0x0 KECCAK256 SWAP1 POP PUSH1 0x1 DUP2 PUSH1 0x1 ADD PUSH1 0x0 PUSH2 0x100 EXP DUP2 SLOAD DUP2 PUSH1 0xFF MUL NOT AND SWAP1 DUP4 ISZERO ISZERO MUL OR SWAP1 SSTORE POP POP POP JUMP JUMPDEST PUSH1 0x0 PUSH1 0x20 MSTORE DUP1 PUSH1 0x0 MSTORE PUSH1 0x40 PUSH1 0x0 KECCAK256 PUSH1 0x0 SWAP2 POP SWAP1 POP DUP1 PUSH1 0x0 ADD DUP1 SLOAD PUSH2 0x2DA SWAP1 PUSH2 0x724 JUMP JUMPDEST DUP1 PUSH1 0x1F ADD PUSH1 0x20 DUP1 SWAP2 DIV MUL PUSH1 0x20 ADD PUSH1 0x40 MLOAD SWAP1 DUP2 ADD PUSH1 0x40 MSTORE DUP1 SWAP3 SWAP2 SWAP1 DUP2 DUP2 MSTORE PUSH1 0x20 ADD DUP3 DUP1 SLOAD PUSH2 0x306 SWAP1 PUSH2 0x724 JUMP JUMPDEST DUP1 ISZERO PUSH2 0x353 JUMPI DUP1 PUSH1 0x1F LT PUSH2 0x328 JUMPI PUSH2 0x100 DUP1 DUP4 SLOAD DIV MUL DUP4 MSTORE SWAP2 PUSH1 0x20 ADD SWAP2 PUSH2 0x353 JUMP JUMPDEST DUP3 ADD SWAP2 SWAP1 PUSH1 0x0 MSTORE PUSH1 0x20 PUSH1 0x0 KECCAK256 SWAP1 JUMPDEST DUP2 SLOAD DUP2 MSTORE SWAP1 PUSH1 0x1 ADD SWAP1 PUSH1 0x20 ADD DUP1 DUP4 GT PUSH2 0x336 JUMPI DUP3 SWAP1 SUB PUSH1 0x1F AND DUP3 ADD SWAP2 JUMPDEST POP POP POP POP POP SWAP1 DUP1 PUSH1 0x1 ADD PUSH1 0x0 SWAP1 SLOAD SWAP1 PUSH2 0x100 EXP SWAP1 DIV PUSH1 0xFF AND SWAP1 POP DUP3 JUMP JUMPDEST PUSH1 0x0 DUP1 PUSH1 0x0 DUP1 DUP5 PUSH20 0xFFFFFFFFFFFFFFFFFFFFFFFFFFFFFFFFFFFFFFFF AND PUSH20 0xFFFFFFFFFFFFFFFFFFFFFFFFFFFFFFFFFFFFFFFF AND DUP2 MSTORE PUSH1 0x20 ADD SWAP1 DUP2 MSTORE PUSH1 0x20 ADD PUSH1 0x0 KECCAK256 SWAP1 POP DUP1 PUSH1 0x1 ADD PUSH1 0x0 SWAP1 SLOAD SWAP1 PUSH2 0x100 EXP SWAP1 DIV PUSH1 0xFF AND SWAP2 POP POP SWAP2 SWAP1 POP JUMP JUMPDEST DUP3 DUP1 SLOAD PUSH2 0x3D9 SWAP1 PUSH2 0x724 JUMP JUMPDEST SWAP1 PUSH1 0x0 MSTORE PUSH1 0x20 PUSH1 0x0 KECCAK256 SWAP1 PUSH1 0x1F ADD PUSH1 0x20 SWAP1 DIV DUP2 ADD SWAP3 DUP3 PUSH2 0x3FB JUMPI PUSH1 0x0 DUP6 SSTORE PUSH2 0x442 JUMP JUMPDEST DUP3 PUSH1 0x1F LT PUSH2 0x414 JUMPI DUP1 MLOAD PUSH1 0xFF NOT AND DUP4 DUP1 ADD OR DUP6 SSTORE PUSH2 0x442 JUMP JUMPDEST DUP3 DUP1 ADD PUSH1 0x1 ADD DUP6 SSTORE DUP3 ISZERO PUSH2 0x442 JUMPI SWAP2 DUP3 ADD JUMPDEST DUP3 DUP2 GT ISZERO PUSH2 0x441 JUMPI DUP3 MLOAD DUP3 SSTORE SWAP2 PUSH1 0x20 ADD SWAP2 SWAP1 PUSH1 0x1 ADD SWAP1 PUSH2 0x426 JUMP JUMPDEST JUMPDEST POP SWAP1 POP PUSH2 0x44F SWAP2 SWAP1 PUSH2 0x453 JUMP JUMPDEST POP SWAP1 JUMP JUMPDEST JUMPDEST DUP1 DUP3 GT ISZERO PUSH2 0x46C JUMPI PUSH1 0x0 DUP2 PUSH1 0x0 SWAP1 SSTORE POP PUSH1 0x1 ADD PUSH2 0x454 JUMP JUMPDEST POP SWAP1 JUMP JUMPDEST PUSH1 0x0 PUSH2 0x483 PUSH2 0x47E DUP5 PUSH2 0x64D JUMP JUMPDEST PUSH2 0x628 JUMP JUMPDEST SWAP1 POP DUP3 DUP2 MSTORE PUSH1 0x20 DUP2 ADD DUP5 DUP5 DUP5 ADD GT ISZERO PUSH2 0x49F JUMPI PUSH2 0x49E PUSH2 0x862 JUMP JUMPDEST JUMPDEST PUSH2 0x4AA DUP5 DUP3 DUP6 PUSH2 0x6E2 JUMP JUMPDEST POP SWAP4 SWAP3 POP POP POP JUMP JUMPDEST PUSH1 0x0 DUP2 CALLDATALOAD SWAP1 POP PUSH2 0x4C1 DUP2 PUSH2 0x882 JUMP JUMPDEST SWAP3 SWAP2 POP POP JUMP JUMPDEST PUSH1 0x0 DUP3 PUSH1 0x1F DUP4 ADD SLT PUSH2 0x4DC JUMPI PUSH2 0x4DB PUSH2 0x85D JUMP JUMPDEST JUMPDEST DUP2 CALLDATALOAD PUSH2 0x4EC DUP5 DUP3 PUSH1 0x20 DUP7 ADD PUSH2 0x470 JUMP JUMPDEST SWAP2 POP POP SWAP3 SWAP2 POP POP JUMP JUMPDEST PUSH1 0x0 PUSH1 0x20 DUP3 DUP5 SUB SLT ISZERO PUSH2 0x50B JUMPI PUSH2 0x50A PUSH2 0x86C JUMP JUMPDEST JUMPDEST PUSH1 0x0 PUSH2 0x519 DUP5 DUP3 DUP6 ADD PUSH2 0x4B2 JUMP JUMPDEST SWAP2 POP POP SWAP3 SWAP2 POP POP JUMP JUMPDEST PUSH1 0x0 PUSH1 0x20 DUP3 DUP5 SUB SLT ISZERO PUSH2 0x538 JUMPI PUSH2 0x537 PUSH2 0x86C JUMP JUMPDEST JUMPDEST PUSH1 0x0 DUP3 ADD CALLDATALOAD PUSH8 0xFFFFFFFFFFFFFFFF DUP2 GT ISZERO PUSH2 0x556 JUMPI PUSH2 0x555 PUSH2 0x867 JUMP JUMPDEST JUMPDEST PUSH2 0x562 DUP5 DUP3 DUP6 ADD PUSH2 0x4C7 JUMP JUMPDEST SWAP2 POP POP SWAP3 SWAP2 POP POP JUMP JUMPDEST PUSH2 0x574 DUP2 PUSH2 0x6AC JUMP JUMPDEST DUP3 MSTORE POP POP JUMP JUMPDEST PUSH1 0x0 PUSH2 0x585 DUP3 PUSH2 0x67E JUMP JUMPDEST PUSH2 0x58F DUP2 DUP6 PUSH2 0x689 JUMP JUMPDEST SWAP4 POP PUSH2 0x59F DUP2 DUP6 PUSH1 0x20 DUP7 ADD PUSH2 0x6F1 JUMP JUMPDEST PUSH2 0x5A8 DUP2 PUSH2 0x871 JUMP JUMPDEST DUP5 ADD SWAP2 POP POP SWAP3 SWAP2 POP POP JUMP JUMPDEST PUSH2 0x5BC DUP2 PUSH2 0x6D8 JUMP JUMPDEST DUP3 MSTORE POP POP JUMP JUMPDEST PUSH1 0x0 PUSH1 0x20 DUP3 ADD SWAP1 POP PUSH2 0x5D7 PUSH1 0x0 DUP4 ADD DUP5 PUSH2 0x56B JUMP JUMPDEST SWAP3 SWAP2 POP POP JUMP JUMPDEST PUSH1 0x0 PUSH1 0x40 DUP3 ADD SWAP1 POP DUP2 DUP2 SUB PUSH1 0x0 DUP4 ADD MSTORE PUSH2 0x5F7 DUP2 DUP6 PUSH2 0x57A JUMP JUMPDEST SWAP1 POP PUSH2 0x606 PUSH1 0x20 DUP4 ADD DUP5 PUSH2 0x56B JUMP JUMPDEST SWAP4 SWAP3 POP POP POP JUMP JUMPDEST PUSH1 0x0 PUSH1 0x20 DUP3 ADD SWAP1 POP PUSH2 0x622 PUSH1 0x0 DUP4 ADD DUP5 PUSH2 0x5B3 JUMP JUMPDEST SWAP3 SWAP2 POP POP JUMP JUMPDEST PUSH1 0x0 PUSH2 0x632 PUSH2 0x643 JUMP JUMPDEST SWAP1 POP PUSH2 0x63E DUP3 DUP3 PUSH2 0x756 JUMP JUMPDEST SWAP2 SWAP1 POP JUMP JUMPDEST PUSH1 0x0 PUSH1 0x40 MLOAD SWAP1 POP SWAP1 JUMP JUMPDEST PUSH1 0x0 PUSH8 0xFFFFFFFFFFFFFFFF DUP3 GT ISZERO PUSH2 0x668 JUMPI PUSH2 0x667 PUSH2 0x82E JUMP JUMPDEST JUMPDEST PUSH2 0x671 DUP3 PUSH2 0x871 JUMP JUMPDEST SWAP1 POP PUSH1 0x20 DUP2 ADD SWAP1 POP SWAP2 SWAP1 POP JUMP JUMPDEST PUSH1 0x0 DUP2 MLOAD SWAP1 POP SWAP2 SWAP1 POP JUMP JUMPDEST PUSH1 0x0 DUP3 DUP3 MSTORE PUSH1 0x20 DUP3 ADD SWAP1 POP SWAP3 SWAP2 POP POP JUMP JUMPDEST PUSH1 0x0 PUSH2 0x6A5 DUP3 PUSH2 0x6B8 JUMP JUMPDEST SWAP1 POP SWAP2 SWAP1 POP JUMP JUMPDEST PUSH1 0x0 DUP2 ISZERO ISZERO SWAP1 POP SWAP2 SWAP1 POP JUMP JUMPDEST PUSH1 0x0 PUSH20 0xFFFFFFFFFFFFFFFFFFFFFFFFFFFFFFFFFFFFFFFF DUP3 AND SWAP1 POP SWAP2 SWAP1 POP JUMP JUMPDEST PUSH1 0x0 DUP2 SWAP1 POP SWAP2 SWAP1 POP JUMP JUMPDEST DUP3 DUP2 DUP4 CALLDATACOPY PUSH1 0x0 DUP4 DUP4 ADD MSTORE POP POP POP JUMP JUMPDEST PUSH1 0x0 JUMPDEST DUP4 DUP2 LT ISZERO PUSH2 0x70F JUMPI DUP1 DUP3 ADD MLOAD DUP2 DUP5 ADD MSTORE PUSH1 0x20 DUP2 ADD SWAP1 POP PUSH2 0x6F4 JUMP JUMPDEST DUP4 DUP2 GT ISZERO PUSH2 0x71E JUMPI PUSH1 0x0 DUP5 DUP5 ADD MSTORE JUMPDEST POP POP POP POP JUMP JUMPDEST PUSH1 0x0 PUSH1 0x2 DUP3 DIV SWAP1 POP PUSH1 0x1 DUP3 AND DUP1 PUSH2 0x73C JUMPI PUSH1 0x7F DUP3 AND SWAP2 POP JUMPDEST PUSH1 0x20 DUP3 LT DUP2 EQ ISZERO PUSH2 0x750 JUMPI PUSH2 0x74F PUSH2 0x7FF JUMP JUMPDEST JUMPDEST POP SWAP2 SWAP1 POP JUMP JUMPDEST PUSH2 0x75F DUP3 PUSH2 0x871 JUMP JUMPDEST DUP2 ADD DUP2 DUP2 LT PUSH8 0xFFFFFFFFFFFFFFFF DUP3 GT OR ISZERO PUSH2 0x77E JUMPI PUSH2 0x77D PUSH2 0x82E JUMP JUMPDEST JUMPDEST DUP1 PUSH1 0x40 MSTORE POP POP POP JUMP JUMPDEST PUSH1 0x0 PUSH2 0x792 DUP3 PUSH2 0x6D8 JUMP JUMPDEST SWAP2 POP PUSH32 0xFFFFFFFFFFFFFFFFFFFFFFFFFFFFFFFFFFFFFFFFFFFFFFFFFFFFFFFFFFFFFFFF DUP3 EQ ISZERO PUSH2 0x7C5 JUMPI PUSH2 0x7C4 PUSH2 0x7D0 JUMP JUMPDEST JUMPDEST PUSH1 0x1 DUP3 ADD SWAP1 POP SWAP2 SWAP1 POP JUMP JUMPDEST PUSH32 0x4E487B7100000000000000000000000000000000000000000000000000000000 PUSH1 0x0 MSTORE PUSH1 0x11 PUSH1 0x4 MSTORE PUSH1 0x24 PUSH1 0x0 REVERT JUMPDEST PUSH32 0x4E487B7100000000000000000000000000000000000000000000000000000000 PUSH1 0x0 MSTORE PUSH1 0x22 PUSH1 0x4 MSTORE PUSH1 0x24 PUSH1 0x0 REVERT JUMPDEST PUSH32 0x4E487B7100000000000000000000000000000000000000000000000000000000 PUSH1 0x0 MSTORE PUSH1 0x41 PUSH1 0x4 MSTORE PUSH1 0x24 PUSH1 0x0 REVERT JUMPDEST PUSH1 0x0 DUP1 REVERT JUMPDEST PUSH1 0x0 DUP1 REVERT JUMPDEST PUSH1 0x0 DUP1 REVERT JUMPDEST PUSH1 0x0 DUP1 REVERT JUMPDEST PUSH1 0x0 PUSH1 0x1F NOT PUSH1 0x1F DUP4 ADD AND SWAP1 POP SWAP2 SWAP1 POP JUMP JUMPDEST PUSH2 0x88B DUP2 PUSH2 0x69A JUMP JUMPDEST DUP2 EQ PUSH2 0x896 JUMPI PUSH1 0x0 DUP1 REVERT JUMPDEST POP JUMP INVALID LOG2 PUSH5 0x6970667358 0x22 SLT KECCAK256 0xB9 MSIZE 0x4D 0xFB 0x2D RETURNDATACOPY 0xC8 PUSH15 0xE65FF18D37FD1DB282809C59F6C02C 0xB9 0xE7 PUSH9 0x73CD81DD7D9164736F PUSH13 0x63430008060033000000000000 "
		},
		"gasEstimates": {
			"creation": {
				"codeDepositCost": "451000",
				"executionCost": "486",
				"totalCost": "451486"
			},
			"external": {
				"addUser(string)": "infinite",
				"invalidateUser(address)": "24853",
				"isValidUser(address)": "2990",
				"userCount()": "2407",
				"users(address)": "infinite",
				"validateUser(address)": "24875"
			}
		},
		"methodIdentifiers": {
			"addUser(string)": "18b8275a",
			"invalidateUser(address)": "697cb94e",
			"isValidUser(address)": "f3c95c60",
			"userCount()": "07973ccf",
			"users(address)": "a87430ba",
			"validateUser(address)": "8459254e"
		}
	},
	"abi": [
		{
			"inputs": [
				{
					"internalType": "string",
					"name": "_name",
					"type": "string"
				}
			],
			"name": "addUser",
			"outputs": [],
			"stateMutability": "nonpayable",
			"type": "function"
		},
		{
			"inputs": [
				{
					"internalType": "address",
					"name": "_user",
					"type": "address"
				}
			],
			"name": "invalidateUser",
			"outputs": [],
			"stateMutability": "nonpayable",
			"type": "function"
		},
		{
			"inputs": [
				{
					"internalType": "address",
					"name": "_user",
					"type": "address"
				}
			],
			"name": "isValidUser",
			"outputs": [
				{
					"internalType": "bool",
					"name": "",
					"type": "bool"
				}
			],
			"stateMutability": "view",
			"type": "function"
		},
		{
			"inputs": [],
			"name": "userCount",
			"outputs": [
				{
					"internalType": "uint256",
					"name": "",
					"type": "uint256"
				}
			],
			"stateMutability": "view",
			"type": "function"
		},
		{
			"inputs": [
				{
					"internalType": "address",
					"name": "",
					"type": "address"
				}
			],
			"name": "users",
			"outputs": [
				{
					"internalType": "string",
					"name": "name",
					"type": "string"
				},
				{
					"internalType": "bool",
					"name": "isValid",
					"type": "bool"
				}
			],
			"stateMutability": "view",
			"type": "function"
		},
		{
			"inputs": [
				{
					"internalType": "address",
					"name": "_user",
					"type": "address"
				}
			],
			"name": "validateUser",
			"outputs": [],
			"stateMutability": "nonpayable",
			"type": "function"
		}
	]
}